{
  "contractName": "CTOKEN",
  "abi": [
    {
      "inputs": [],
      "stateMutability": "nonpayable",
      "type": "constructor"
    },
    {
      "anonymous": false,
      "inputs": [
        {
          "indexed": true,
          "internalType": "address",
          "name": "account",
          "type": "address"
        },
        {
          "indexed": true,
          "internalType": "address",
          "name": "operator",
          "type": "address"
        },
        {
          "indexed": false,
          "internalType": "bool",
          "name": "approved",
          "type": "bool"
        }
      ],
      "name": "ApprovalForAll",
      "type": "event"
    },
    {
      "anonymous": false,
      "inputs": [
        {
          "indexed": false,
          "internalType": "string",
          "name": "nextStep",
          "type": "string"
        }
      ],
      "name": "LogConstructorInitiated",
      "type": "event"
    },
    {
      "anonymous": false,
      "inputs": [
        {
          "indexed": false,
          "internalType": "string",
          "name": "description",
          "type": "string"
        }
      ],
      "name": "LogNewProvableQuery",
      "type": "event"
    },
    {
      "anonymous": false,
      "inputs": [
        {
          "indexed": false,
          "internalType": "string",
          "name": "price",
          "type": "string"
        }
      ],
      "name": "LogPriceUpdated",
      "type": "event"
    },
    {
      "anonymous": false,
      "inputs": [
        {
          "indexed": false,
          "internalType": "address",
          "name": "acct",
          "type": "address"
        },
        {
          "indexed": false,
          "internalType": "string",
          "name": "description",
          "type": "string"
        },
        {
          "indexed": false,
          "internalType": "string",
          "name": "data",
          "type": "string"
        }
      ],
      "name": "RecordedData",
      "type": "event"
    },
    {
      "anonymous": false,
      "inputs": [
        {
          "indexed": true,
          "internalType": "address",
          "name": "operator",
          "type": "address"
        },
        {
          "indexed": true,
          "internalType": "address",
          "name": "from",
          "type": "address"
        },
        {
          "indexed": true,
          "internalType": "address",
          "name": "to",
          "type": "address"
        },
        {
          "indexed": false,
          "internalType": "uint256[]",
          "name": "ids",
          "type": "uint256[]"
        },
        {
          "indexed": false,
          "internalType": "uint256[]",
          "name": "values",
          "type": "uint256[]"
        }
      ],
      "name": "TransferBatch",
      "type": "event"
    },
    {
      "anonymous": false,
      "inputs": [
        {
          "indexed": true,
          "internalType": "address",
          "name": "operator",
          "type": "address"
        },
        {
          "indexed": true,
          "internalType": "address",
          "name": "from",
          "type": "address"
        },
        {
          "indexed": true,
          "internalType": "address",
          "name": "to",
          "type": "address"
        },
        {
          "indexed": false,
          "internalType": "uint256",
          "name": "id",
          "type": "uint256"
        },
        {
          "indexed": false,
          "internalType": "uint256",
          "name": "value",
          "type": "uint256"
        }
      ],
      "name": "TransferSingle",
      "type": "event"
    },
    {
      "anonymous": false,
      "inputs": [
        {
          "indexed": false,
          "internalType": "string",
          "name": "value",
          "type": "string"
        },
        {
          "indexed": true,
          "internalType": "uint256",
          "name": "id",
          "type": "uint256"
        }
      ],
      "name": "URI",
      "type": "event"
    },
    {
      "inputs": [
        {
          "internalType": "address",
          "name": "account",
          "type": "address"
        },
        {
          "internalType": "uint256",
          "name": "id",
          "type": "uint256"
        }
      ],
      "name": "balanceOf",
      "outputs": [
        {
          "internalType": "uint256",
          "name": "",
          "type": "uint256"
        }
      ],
      "stateMutability": "view",
      "type": "function",
      "constant": true
    },
    {
      "inputs": [
        {
          "internalType": "address[]",
          "name": "accounts",
          "type": "address[]"
        },
        {
          "internalType": "uint256[]",
          "name": "ids",
          "type": "uint256[]"
        }
      ],
      "name": "balanceOfBatch",
      "outputs": [
        {
          "internalType": "uint256[]",
          "name": "",
          "type": "uint256[]"
        }
      ],
      "stateMutability": "view",
      "type": "function",
      "constant": true
    },
    {
      "inputs": [],
      "name": "contractOwner",
      "outputs": [
        {
          "internalType": "address",
          "name": "",
          "type": "address"
        }
      ],
      "stateMutability": "view",
      "type": "function",
      "constant": true
    },
    {
      "inputs": [],
      "name": "decimals",
      "outputs": [
        {
          "internalType": "uint8",
          "name": "",
          "type": "uint8"
        }
      ],
      "stateMutability": "view",
      "type": "function",
      "constant": true
    },
    {
      "inputs": [
        {
          "internalType": "address",
          "name": "account",
          "type": "address"
        },
        {
          "internalType": "address",
          "name": "operator",
          "type": "address"
        }
      ],
      "name": "isApprovedForAll",
      "outputs": [
        {
          "internalType": "bool",
          "name": "",
          "type": "bool"
        }
      ],
      "stateMutability": "view",
      "type": "function",
      "constant": true
    },
    {
      "inputs": [],
      "name": "nextTokenID",
      "outputs": [
        {
          "internalType": "uint256",
          "name": "",
          "type": "uint256"
        }
      ],
      "stateMutability": "view",
      "type": "function",
      "constant": true
    },
    {
      "inputs": [],
      "name": "responseFromAPI",
      "outputs": [
        {
          "internalType": "uint256",
          "name": "",
          "type": "uint256"
        }
      ],
      "stateMutability": "view",
      "type": "function",
      "constant": true
    },
    {
      "inputs": [
        {
          "internalType": "address",
          "name": "operator",
          "type": "address"
        },
        {
          "internalType": "bool",
          "name": "approved",
          "type": "bool"
        }
      ],
      "name": "setApprovalForAll",
      "outputs": [],
      "stateMutability": "nonpayable",
      "type": "function"
    },
    {
      "inputs": [
        {
          "internalType": "bytes4",
          "name": "interfaceId",
          "type": "bytes4"
        }
      ],
      "name": "supportsInterface",
      "outputs": [
        {
          "internalType": "bool",
          "name": "",
          "type": "bool"
        }
      ],
      "stateMutability": "view",
      "type": "function",
      "constant": true
    },
    {
      "inputs": [
        {
          "internalType": "uint256",
          "name": "id",
          "type": "uint256"
        }
      ],
      "name": "uri",
      "outputs": [
        {
          "internalType": "string",
          "name": "",
          "type": "string"
        }
      ],
      "stateMutability": "view",
      "type": "function",
      "constant": true
    },
    {
      "inputs": [],
      "name": "volume",
      "outputs": [
        {
          "internalType": "uint256",
          "name": "",
          "type": "uint256"
        }
      ],
      "stateMutability": "view",
      "type": "function",
      "constant": true
    },
    {
      "stateMutability": "payable",
      "type": "receive",
      "payable": true
    },
    {
      "inputs": [],
      "name": "name",
      "outputs": [
        {
          "internalType": "string",
          "name": "",
          "type": "string"
        }
      ],
      "stateMutability": "view",
      "type": "function",
      "constant": true
    },
    {
      "inputs": [],
      "name": "symbol",
      "outputs": [
        {
          "internalType": "string",
          "name": "",
          "type": "string"
        }
      ],
      "stateMutability": "view",
      "type": "function",
      "constant": true
    },
    {
      "inputs": [
        {
          "internalType": "address",
          "name": "account",
          "type": "address"
        },
        {
          "internalType": "uint256",
          "name": "tokencount",
          "type": "uint256"
        },
        {
          "internalType": "string",
          "name": "uri",
          "type": "string"
        },
        {
          "internalType": "bytes",
          "name": "data",
          "type": "bytes"
        }
      ],
      "name": "createToken",
      "outputs": [],
      "stateMutability": "nonpayable",
      "type": "function"
    },
    {
      "inputs": [
        {
          "internalType": "address",
          "name": "account",
          "type": "address"
        },
        {
          "internalType": "uint256",
          "name": "tokenID",
          "type": "uint256"
        },
        {
          "internalType": "uint256",
          "name": "amount",
          "type": "uint256"
        }
      ],
      "name": "burnToken",
      "outputs": [],
      "stateMutability": "nonpayable",
      "type": "function"
    },
    {
      "inputs": [
        {
          "internalType": "uint256",
          "name": "tokenID",
          "type": "uint256"
        }
      ],
      "name": "totalSupply",
      "outputs": [
        {
          "internalType": "uint256",
          "name": "",
          "type": "uint256"
        }
      ],
      "stateMutability": "view",
      "type": "function",
      "constant": true
    },
    {
      "inputs": [],
      "name": "nextTokenId",
      "outputs": [
        {
          "internalType": "uint256",
          "name": "",
          "type": "uint256"
        }
      ],
      "stateMutability": "view",
      "type": "function",
      "constant": true
    },
    {
      "inputs": [
        {
          "internalType": "uint256",
          "name": "tokenID",
          "type": "uint256"
        }
      ],
      "name": "exists",
      "outputs": [
        {
          "internalType": "bool",
          "name": "",
          "type": "bool"
        }
      ],
      "stateMutability": "view",
      "type": "function",
      "constant": true
    },
    {
      "inputs": [
        {
          "internalType": "address",
          "name": "from",
          "type": "address"
        },
        {
          "internalType": "address",
          "name": "to",
          "type": "address"
        },
        {
          "internalType": "uint256[]",
          "name": "ids",
          "type": "uint256[]"
        },
        {
          "internalType": "uint256[]",
          "name": "amounts",
          "type": "uint256[]"
        },
        {
          "internalType": "bytes",
          "name": "data",
          "type": "bytes"
        }
      ],
      "name": "safeBatchTransferFrom",
      "outputs": [],
      "stateMutability": "nonpayable",
      "type": "function"
    },
    {
      "inputs": [
        {
          "internalType": "address",
          "name": "from",
          "type": "address"
        },
        {
          "internalType": "address",
          "name": "to",
          "type": "address"
        },
        {
          "internalType": "uint256",
          "name": "id",
          "type": "uint256"
        },
        {
          "internalType": "uint256",
          "name": "amount",
          "type": "uint256"
        },
        {
          "internalType": "bytes",
          "name": "data",
          "type": "bytes"
        }
      ],
      "name": "safeTransferFrom",
      "outputs": [],
      "stateMutability": "nonpayable",
      "type": "function"
    },
    {
      "inputs": [],
      "name": "responseInterestFromApi",
      "outputs": [
        {
          "internalType": "uint256",
          "name": "",
          "type": "uint256"
        }
      ],
      "stateMutability": "view",
      "type": "function",
      "constant": true
    },
    {
      "inputs": [
        {
          "internalType": "address",
          "name": "_address",
          "type": "address"
        }
      ],
      "name": "transferContractownership",
      "outputs": [],
      "stateMutability": "nonpayable",
      "type": "function"
    },
    {
      "inputs": [
        {
          "internalType": "string",
          "name": "source",
          "type": "string"
        }
      ],
      "name": "stringToBytes32",
      "outputs": [
        {
          "internalType": "bytes32",
          "name": "result",
          "type": "bytes32"
        }
      ],
      "stateMutability": "pure",
      "type": "function",
      "constant": true
    }
  ],
  "bytecode": "0x60806040523480156200001157600080fd5b506040518060400160405280600681526020017f43544f4b454e0000000000000000000000000000000000000000000000000000815250620000606301ffc9a760e01b620000e960201b60201c565b6200007181620001f260201b60201c565b6200008963d9b67a2660e01b620000e960201b60201c565b620000a1630e89341c60e01b620000e960201b60201c565b5033600960006101000a81548173ffffffffffffffffffffffffffffffffffffffff021916908373ffffffffffffffffffffffffffffffffffffffff160217905550620002bd565b63ffffffff60e01b817bffffffffffffffffffffffffffffffffffffffffffffffffffffffff1916141562000186576040517f08c379a000000000000000000000000000000000000000000000000000000000815260040180806020018281038252601c8152602001807f4552433136353a20696e76616c696420696e746572666163652069640000000081525060200191505060405180910390fd5b6001600080837bffffffffffffffffffffffffffffffffffffffffffffffffffffffff19167bffffffffffffffffffffffffffffffffffffffffffffffffffffffff1916815260200190815260200160002060006101000a81548160ff02191690831515021790555050565b80600490805190602001906200020a9291906200020e565b5050565b828054600181600116156101000203166002900490600052602060002090601f016020900481019282601f106200025157805160ff191683800117855562000282565b8280016001018555821562000282579182015b828111156200028157825182559160200191906001019062000264565b5b50905062000291919062000295565b5090565b620002ba91905b80821115620002b65760008160009055506001016200029c565b5090565b90565b61336f80620002cd6000396000f3fe6080604052600436106101435760003560e01c806375794a3c116100b6578063cfb519281161006f578063cfb5192814610a66578063e985e9c514610b42578063ed8c593814610bcb578063f101e48114610c30578063f242432a14610c5b578063f2653ee914610d775761014a565b806375794a3c1461087d57806395d89b41146108a8578063a22cb46514610938578063bd85b03914610995578063c618a1e4146109e4578063ce606ee014610a0f5761014a565b8063313ce56711610108578063313ce567146105a45780633d04f49b146105d55780634e1273f4146106005780634f558e79146107ae5780636778edc5146108015780637153f4111461082c5761014a565b8062fdd58e1461014f57806301ffc9a7146101be57806306fdde03146102305780630e89341c146102c05780632eb2c2d6146103745761014a565b3661014a57005b600080fd5b34801561015b57600080fd5b506101a86004803603604081101561017257600080fd5b81019080803573ffffffffffffffffffffffffffffffffffffffff16906020019092919080359060200190929190505050610f00565b6040518082815260200191505060405180910390f35b3480156101ca57600080fd5b50610216600480360360208110156101e157600080fd5b8101908080357bffffffffffffffffffffffffffffffffffffffffffffffffffffffff19169060200190929190505050610fe0565b604051808215151515815260200191505060405180910390f35b34801561023c57600080fd5b50610245611047565b6040518080602001828103825283818151815260200191508051906020019080838360005b8381101561028557808201518184015260208101905061026a565b50505050905090810190601f1680156102b25780820380516001836020036101000a031916815260200191505b509250505060405180910390f35b3480156102cc57600080fd5b506102f9600480360360208110156102e357600080fd5b8101908080359060200190929190505050611084565b6040518080602001828103825283818151815260200191508051906020019080838360005b8381101561033957808201518184015260208101905061031e565b50505050905090810190601f1680156103665780820380516001836020036101000a031916815260200191505b509250505060405180910390f35b34801561038057600080fd5b506105a2600480360360a081101561039757600080fd5b81019080803573ffffffffffffffffffffffffffffffffffffffff169060200190929190803573ffffffffffffffffffffffffffffffffffffffff169060200190929190803590602001906401000000008111156103f457600080fd5b82018360208201111561040657600080fd5b8035906020019184602083028401116401000000008311171561042857600080fd5b919080806020026020016040519081016040528093929190818152602001838360200280828437600081840152601f19601f8201169050808301925050505050505091929192908035906020019064010000000081111561048857600080fd5b82018360208201111561049a57600080fd5b803590602001918460208302840111640100000000831117156104bc57600080fd5b919080806020026020016040519081016040528093929190818152602001838360200280828437600081840152601f19601f8201169050808301925050505050505091929192908035906020019064010000000081111561051c57600080fd5b82018360208201111561052e57600080fd5b8035906020019184600183028401116401000000008311171561055057600080fd5b91908080601f016020809104026020016040519081016040528093929190818152602001838380828437600081840152601f19601f820116905080830192505050505050509192919290505050611096565b005b3480156105b057600080fd5b506105b961114d565b604051808260ff1660ff16815260200191505060405180910390f35b3480156105e157600080fd5b506105ea611152565b6040518082815260200191505060405180910390f35b34801561060c57600080fd5b506107576004803603604081101561062357600080fd5b810190808035906020019064010000000081111561064057600080fd5b82018360208201111561065257600080fd5b8035906020019184602083028401116401000000008311171561067457600080fd5b919080806020026020016040519081016040528093929190818152602001838360200280828437600081840152601f19601f820116905080830192505050505050509192919290803590602001906401000000008111156106d457600080fd5b8201836020820111156106e657600080fd5b8035906020019184602083028401116401000000008311171561070857600080fd5b919080806020026020016040519081016040528093929190818152602001838360200280828437600081840152601f19601f820116905080830192505050505050509192919290505050611158565b6040518080602001828103825283818151815260200191508051906020019060200280838360005b8381101561079a57808201518184015260208101905061077f565b505050509050019250505060405180910390f35b3480156107ba57600080fd5b506107e7600480360360208110156107d157600080fd5b8101908080359060200190929190505050611336565b604051808215151515815260200191505060405180910390f35b34801561080d57600080fd5b5061081661134a565b6040518082815260200191505060405180910390f35b34801561083857600080fd5b5061087b6004803603602081101561084f57600080fd5b81019080803573ffffffffffffffffffffffffffffffffffffffff169060200190929190505050611354565b005b34801561088957600080fd5b5061089261143e565b6040518082815260200191505060405180910390f35b3480156108b457600080fd5b506108bd611448565b6040518080602001828103825283818151815260200191508051906020019080838360005b838110156108fd5780820151818401526020810190506108e2565b50505050905090810190601f16801561092a5780820380516001836020036101000a031916815260200191505b509250505060405180910390f35b34801561094457600080fd5b506109936004803603604081101561095b57600080fd5b81019080803573ffffffffffffffffffffffffffffffffffffffff169060200190929190803515159060200190929190505050611485565b005b3480156109a157600080fd5b506109ce600480360360208110156109b857600080fd5b8101908080359060200190929190505050611620565b6040518082815260200191505060405180910390f35b3480156109f057600080fd5b506109f961163d565b6040518082815260200191505060405180910390f35b348015610a1b57600080fd5b50610a24611643565b604051808273ffffffffffffffffffffffffffffffffffffffff1673ffffffffffffffffffffffffffffffffffffffff16815260200191505060405180910390f35b348015610a7257600080fd5b50610b2c60048036036020811015610a8957600080fd5b8101908080359060200190640100000000811115610aa657600080fd5b820183602082011115610ab857600080fd5b80359060200191846001830284011164010000000083111715610ada57600080fd5b91908080601f016020809104026020016040519081016040528093929190818152602001838380828437600081840152601f19601f820116905080830192505050505050509192919290505050611669565b6040518082815260200191505060405180910390f35b348015610b4e57600080fd5b50610bb160048036036040811015610b6557600080fd5b81019080803573ffffffffffffffffffffffffffffffffffffffff169060200190929190803573ffffffffffffffffffffffffffffffffffffffff169060200190929190505050611694565b604051808215151515815260200191505060405180910390f35b348015610bd757600080fd5b50610c2e60048036036060811015610bee57600080fd5b81019080803573ffffffffffffffffffffffffffffffffffffffff1690602001909291908035906020019092919080359060200190929190505050611728565b005b348015610c3c57600080fd5b50610c456117d8565b6040518082815260200191505060405180910390f35b348015610c6757600080fd5b50610d75600480360360a0811015610c7e57600080fd5b81019080803573ffffffffffffffffffffffffffffffffffffffff169060200190929190803573ffffffffffffffffffffffffffffffffffffffff169060200190929190803590602001909291908035906020019092919080359060200190640100000000811115610cef57600080fd5b820183602082011115610d0157600080fd5b80359060200191846001830284011164010000000083111715610d2357600080fd5b91908080601f016020809104026020016040519081016040528093929190818152602001838380828437600081840152601f19601f8201169050808301925050505050505091929192905050506117de565b005b348015610d8357600080fd5b50610efe60048036036080811015610d9a57600080fd5b81019080803573ffffffffffffffffffffffffffffffffffffffff1690602001909291908035906020019092919080359060200190640100000000811115610de157600080fd5b820183602082011115610df357600080fd5b80359060200191846001830284011164010000000083111715610e1557600080fd5b91908080601f016020809104026020016040519081016040528093929190818152602001838380828437600081840152601f19601f82011690508083019250505050505050919291929080359060200190640100000000811115610e7857600080fd5b820183602082011115610e8a57600080fd5b80359060200191846001830284011164010000000083111715610eac57600080fd5b91908080601f016020809104026020016040519081016040528093929190818152602001838380828437600081840152601f19601f820116905080830192505050505050509192919290505050611923565b005b60008073ffffffffffffffffffffffffffffffffffffffff168373ffffffffffffffffffffffffffffffffffffffff161415610f87576040517f08c379a000000000000000000000000000000000000000000000000000000000815260040180806020018281038252602b815260200180613128602b913960400191505060405180910390fd5b6002600083815260200190815260200160002060008473ffffffffffffffffffffffffffffffffffffffff1673ffffffffffffffffffffffffffffffffffffffff16815260200190815260200160002054905092915050565b6000806000837bffffffffffffffffffffffffffffffffffffffffffffffffffffffff19167bffffffffffffffffffffffffffffffffffffffffffffffffffffffff1916815260200190815260200160002060009054906101000a900460ff169050919050565b60606040518060400160405280600681526020017f43544f4b454e0000000000000000000000000000000000000000000000000000815250905090565b606061108f82611a66565b9050919050565b61109e611b1b565b73ffffffffffffffffffffffffffffffffffffffff168573ffffffffffffffffffffffffffffffffffffffff1614806110e457506110e3856110de611b1b565b611694565b5b611139576040517f08c379a00000000000000000000000000000000000000000000000000000000081526004018080602001828103825260328152602001806131f66032913960400191505060405180910390fd5b6111468585858585611b23565b5050505050565b600581565b60055481565b606081518351146111b4576040517f08c379a00000000000000000000000000000000000000000000000000000000081526004018080602001828103825260298152602001806132c86029913960400191505060405180910390fd5b606083516040519080825280602002602001820160405280156111e65781602001602082028038833980820191505090505b50905060008090505b845181101561132b57600073ffffffffffffffffffffffffffffffffffffffff1685828151811061121c57fe5b602002602001015173ffffffffffffffffffffffffffffffffffffffff161415611291576040517f08c379a00000000000000000000000000000000000000000000000000000000081526004018080602001828103825260318152602001806131536031913960400191505060405180910390fd5b600260008583815181106112a157fe5b6020026020010151815260200190815260200160002060008683815181106112c557fe5b602002602001015173ffffffffffffffffffffffffffffffffffffffff1673ffffffffffffffffffffffffffffffffffffffff1681526020019081526020016000205482828151811061131457fe5b6020026020010181815250508060010190506111ef565b508091505092915050565b60008061134283611620565b119050919050565b6000600554905090565b600960009054906101000a900473ffffffffffffffffffffffffffffffffffffffff1673ffffffffffffffffffffffffffffffffffffffff163373ffffffffffffffffffffffffffffffffffffffff16146113fa576040517f08c379a000000000000000000000000000000000000000000000000000000000815260040180806020018281038252602a815260200180613228602a913960400191505060405180910390fd5b80600960006101000a81548173ffffffffffffffffffffffffffffffffffffffff021916908373ffffffffffffffffffffffffffffffffffffffff16021790555050565b6000600754905090565b60606040518060400160405280600681526020017f43544f4b454e0000000000000000000000000000000000000000000000000000815250905090565b8173ffffffffffffffffffffffffffffffffffffffff166114a4611b1b565b73ffffffffffffffffffffffffffffffffffffffff161415611511576040517f08c379a000000000000000000000000000000000000000000000000000000000815260040180806020018281038252602981526020018061329f6029913960400191505060405180910390fd5b806003600061151e611b1b565b73ffffffffffffffffffffffffffffffffffffffff1673ffffffffffffffffffffffffffffffffffffffff16815260200190815260200160002060008473ffffffffffffffffffffffffffffffffffffffff1673ffffffffffffffffffffffffffffffffffffffff16815260200190815260200160002060006101000a81548160ff0219169083151502179055508173ffffffffffffffffffffffffffffffffffffffff166115cb611b1b565b73ffffffffffffffffffffffffffffffffffffffff167f17307eab39ab6107e8899845ad3d59bd9653f200f220920489ca2b5937696c3183604051808215151515815260200191505060405180910390a35050565b600060086000838152602001908152602001600020549050919050565b60065481565b600960009054906101000a900473ffffffffffffffffffffffffffffffffffffffff1681565b60006060829050600081511415611686576000801b91505061168f565b60208301519150505b919050565b6000600360008473ffffffffffffffffffffffffffffffffffffffff1673ffffffffffffffffffffffffffffffffffffffff16815260200190815260200160002060008373ffffffffffffffffffffffffffffffffffffffff1673ffffffffffffffffffffffffffffffffffffffff16815260200190815260200160002060009054906101000a900460ff16905092915050565b60006117348484610f00565b116117a7576040517f08c379a00000000000000000000000000000000000000000000000000000000081526004018080602001828103825260208152602001807f4e6f20746f6b656e7320746f206275726e20696e20746869732077616c6c657481525060200191505060405180910390fd5b6117b2838383611eea565b806008600084815260200190815260200160002060008282540392505081905550505050565b60075481565b600960009054906101000a900473ffffffffffffffffffffffffffffffffffffffff1673ffffffffffffffffffffffffffffffffffffffff163373ffffffffffffffffffffffffffffffffffffffff16148061186557508473ffffffffffffffffffffffffffffffffffffffff163373ffffffffffffffffffffffffffffffffffffffff16145b806118a25750611873611b1b565b73ffffffffffffffffffffffffffffffffffffffff168573ffffffffffffffffffffffffffffffffffffffff16145b806118ba57506118b9856118b4611b1b565b611694565b5b61190f576040517f08c379a00000000000000000000000000000000000000000000000000000000081526004018080602001828103825260298152602001806131a86029913960400191505060405180910390fd5b61191c8585858585612106565b5050505050565b8373ffffffffffffffffffffffffffffffffffffffff163373ffffffffffffffffffffffffffffffffffffffff1614806119aa5750600960009054906101000a900473ffffffffffffffffffffffffffffffffffffffff1673ffffffffffffffffffffffffffffffffffffffff163373ffffffffffffffffffffffffffffffffffffffff16145b611a1c576040517f08c379a000000000000000000000000000000000000000000000000000000000815260040180806020018281038252601d8152602001807f4f6e6c7920617574686f72697a656420757365722063616e206d696e7400000081525060200191505060405180910390fd5b611a2b846007548585856123b4565b826008600060075481526020019081526020016000206000828254019250508190555060076000815480929190600101919050555050505050565b6060600160008381526020019081526020016000208054600181600116156101000203166002900480601f016020809104026020016040519081016040528092919081815260200182805460018160011615610100020316600290048015611b0f5780601f10611ae457610100808354040283529160200191611b0f565b820191906000526020600020905b815481529060010190602001808311611af257829003601f168201915b50505050509050919050565b600033905090565b8151835114611b7d576040517f08c379a00000000000000000000000000000000000000000000000000000000081526004018080602001828103825260288152602001806132f16028913960400191505060405180910390fd5b600073ffffffffffffffffffffffffffffffffffffffff168473ffffffffffffffffffffffffffffffffffffffff161415611c03576040517f08c379a00000000000000000000000000000000000000000000000000000000081526004018080602001828103825260258152602001806131d16025913960400191505060405180910390fd5b6000611c0d611b1b565b9050611c1d8187878787876125c2565b60008090505b8451811015611dcd576000858281518110611c3a57fe5b602002602001015190506000858381518110611c5257fe5b6020026020010151905060006002600084815260200190815260200160002060008b73ffffffffffffffffffffffffffffffffffffffff1673ffffffffffffffffffffffffffffffffffffffff16815260200190815260200160002054905081811015611d0a576040517f08c379a000000000000000000000000000000000000000000000000000000000815260040180806020018281038252602a815260200180613275602a913960400191505060405180910390fd5b8181036002600085815260200190815260200160002060008c73ffffffffffffffffffffffffffffffffffffffff1673ffffffffffffffffffffffffffffffffffffffff16815260200190815260200160002081905550816002600085815260200190815260200160002060008b73ffffffffffffffffffffffffffffffffffffffff1673ffffffffffffffffffffffffffffffffffffffff16815260200190815260200160002060008282540192505081905550505050806001019050611c23565b508473ffffffffffffffffffffffffffffffffffffffff168673ffffffffffffffffffffffffffffffffffffffff168273ffffffffffffffffffffffffffffffffffffffff167f4a39dc06d4c0dbc64b70af90fd698a233a518aa5d07e595d983b8c0526c8f7fb8787604051808060200180602001838103835285818151815260200191508051906020019060200280838360005b83811015611e7d578082015181840152602081019050611e62565b50505050905001838103825284818151815260200191508051906020019060200280838360005b83811015611ebf578082015181840152602081019050611ea4565b5050505090500194505050505060405180910390a4611ee28187878787876125ca565b505050505050565b600073ffffffffffffffffffffffffffffffffffffffff168373ffffffffffffffffffffffffffffffffffffffff161415611f70576040517f08c379a00000000000000000000000000000000000000000000000000000000081526004018080602001828103825260238152602001806132526023913960400191505060405180910390fd5b6000611f7a611b1b565b9050611faa81856000611f8c87612a42565b611f9587612a42565b604051806020016040528060008152506125c2565b61202782604051806060016040528060248152602001613184602491396002600087815260200190815260200160002060008873ffffffffffffffffffffffffffffffffffffffff1673ffffffffffffffffffffffffffffffffffffffff16815260200190815260200160002054612a9b9092919063ffffffff16565b6002600085815260200190815260200160002060008673ffffffffffffffffffffffffffffffffffffffff1673ffffffffffffffffffffffffffffffffffffffff16815260200190815260200160002081905550600073ffffffffffffffffffffffffffffffffffffffff168473ffffffffffffffffffffffffffffffffffffffff168273ffffffffffffffffffffffffffffffffffffffff167fc3d58168c5ae7397731d063d5bbf3d657854427343f4c083240f7aacaa2d0f628686604051808381526020018281526020019250505060405180910390a450505050565b600073ffffffffffffffffffffffffffffffffffffffff168473ffffffffffffffffffffffffffffffffffffffff16141561218c576040517f08c379a00000000000000000000000000000000000000000000000000000000081526004018080602001828103825260258152602001806131d16025913960400191505060405180910390fd5b6000612196611b1b565b90506121b68187876121a788612a42565b6121b088612a42565b876125c2565b60006002600086815260200190815260200160002060008873ffffffffffffffffffffffffffffffffffffffff1673ffffffffffffffffffffffffffffffffffffffff16815260200190815260200160002054905083811015612264576040517f08c379a000000000000000000000000000000000000000000000000000000000815260040180806020018281038252602a815260200180613275602a913960400191505060405180910390fd5b8381036002600087815260200190815260200160002060008973ffffffffffffffffffffffffffffffffffffffff1673ffffffffffffffffffffffffffffffffffffffff16815260200190815260200160002081905550836002600087815260200190815260200160002060008873ffffffffffffffffffffffffffffffffffffffff1673ffffffffffffffffffffffffffffffffffffffff168152602001908152602001600020600082825401925050819055508573ffffffffffffffffffffffffffffffffffffffff168773ffffffffffffffffffffffffffffffffffffffff168373ffffffffffffffffffffffffffffffffffffffff167fc3d58168c5ae7397731d063d5bbf3d657854427343f4c083240f7aacaa2d0f628888604051808381526020018281526020019250505060405180910390a46123ab828888888888612b5b565b50505050505050565b600073ffffffffffffffffffffffffffffffffffffffff168573ffffffffffffffffffffffffffffffffffffffff16141561243a576040517f08c379a00000000000000000000000000000000000000000000000000000000081526004018080602001828103825260218152602001806133196021913960400191505060405180910390fd5b6000612444611b1b565b90506124658160008861245689612a42565b61245f89612a42565b876125c2565b6124c8846002600088815260200190815260200160002060008973ffffffffffffffffffffffffffffffffffffffff1673ffffffffffffffffffffffffffffffffffffffff16815260200190815260200160002054612f5190919063ffffffff16565b6002600087815260200190815260200160002060008873ffffffffffffffffffffffffffffffffffffffff1673ffffffffffffffffffffffffffffffffffffffff168152602001908152602001600020819055506125268584612fd9565b8573ffffffffffffffffffffffffffffffffffffffff16600073ffffffffffffffffffffffffffffffffffffffff168273ffffffffffffffffffffffffffffffffffffffff167fc3d58168c5ae7397731d063d5bbf3d657854427343f4c083240f7aacaa2d0f628888604051808381526020018281526020019250505060405180910390a46125ba81600088888887612b5b565b505050505050565b505050505050565b6125e98473ffffffffffffffffffffffffffffffffffffffff16612fe7565b15612a3a578373ffffffffffffffffffffffffffffffffffffffff1663bc197c8187878686866040518663ffffffff1660e01b8152600401808673ffffffffffffffffffffffffffffffffffffffff1673ffffffffffffffffffffffffffffffffffffffff1681526020018573ffffffffffffffffffffffffffffffffffffffff1673ffffffffffffffffffffffffffffffffffffffff168152602001806020018060200180602001848103845287818151815260200191508051906020019060200280838360005b838110156126cd5780820151818401526020810190506126b2565b50505050905001848103835286818151815260200191508051906020019060200280838360005b8381101561270f5780820151818401526020810190506126f4565b50505050905001848103825285818151815260200191508051906020019080838360005b8381101561274e578082015181840152602081019050612733565b50505050905090810190601f16801561277b5780820380516001836020036101000a031916815260200191505b5098505050505050505050602060405180830381600087803b1580156127a057600080fd5b505af19250505080156127d457506040513d60208110156127c057600080fd5b810190808051906020019092919050505060015b61299b57600060405190506000815260011561289d5760443d10156127fc576000905061289d565b60046000803e60005160e01c6308c379a0811461281d57600091505061289d565b60043d036004833e81513d602482011167ffffffffffffffff821117156128495760009250505061289d565b808301805167ffffffffffffffff81111561286b57600094505050505061289d565b8060208301013d86018111156128895760009550505050505061289d565b601f19601f82011660405282955050505050505b806128a8575061294a565b806040517f08c379a00000000000000000000000000000000000000000000000000000000081526004018080602001828103825283818151815260200191508051906020019080838360005b8381101561290f5780820151818401526020810190506128f4565b50505050905090810190601f16801561293c5780820380516001836020036101000a031916815260200191505b509250505060405180910390fd5b6040517f08c379a00000000000000000000000000000000000000000000000000000000081526004018080602001828103825260348152602001806130cc6034913960400191505060405180910390fd5b63bc197c8160e01b7bffffffffffffffffffffffffffffffffffffffffffffffffffffffff1916817bffffffffffffffffffffffffffffffffffffffffffffffffffffffff191614612a38576040517f08c379a00000000000000000000000000000000000000000000000000000000081526004018080602001828103825260288152602001806131006028913960400191505060405180910390fd5b505b505050505050565b6060806001604051908082528060200260200182016040528015612a755781602001602082028038833980820191505090505b5090508281600081518110612a8657fe5b60200260200101818152505080915050919050565b6000838311158290612b48576040517f08c379a00000000000000000000000000000000000000000000000000000000081526004018080602001828103825283818151815260200191508051906020019080838360005b83811015612b0d578082015181840152602081019050612af2565b50505050905090810190601f168015612b3a5780820380516001836020036101000a031916815260200191505b509250505060405180910390fd5b5060008385039050809150509392505050565b612b7a8473ffffffffffffffffffffffffffffffffffffffff16612fe7565b15612f49578373ffffffffffffffffffffffffffffffffffffffff1663f23a6e6187878686866040518663ffffffff1660e01b8152600401808673ffffffffffffffffffffffffffffffffffffffff1673ffffffffffffffffffffffffffffffffffffffff1681526020018573ffffffffffffffffffffffffffffffffffffffff1673ffffffffffffffffffffffffffffffffffffffff16815260200184815260200183815260200180602001828103825283818151815260200191508051906020019080838360005b83811015612c5f578082015181840152602081019050612c44565b50505050905090810190601f168015612c8c5780820380516001836020036101000a031916815260200191505b509650505050505050602060405180830381600087803b158015612caf57600080fd5b505af1925050508015612ce357506040513d6020811015612ccf57600080fd5b810190808051906020019092919050505060015b612eaa576000604051905060008152600115612dac5760443d1015612d0b5760009050612dac565b60046000803e60005160e01c6308c379a08114612d2c576000915050612dac565b60043d036004833e81513d602482011167ffffffffffffffff82111715612d5857600092505050612dac565b808301805167ffffffffffffffff811115612d7a576000945050505050612dac565b8060208301013d8601811115612d9857600095505050505050612dac565b601f19601f82011660405282955050505050505b80612db75750612e59565b806040517f08c379a00000000000000000000000000000000000000000000000000000000081526004018080602001828103825283818151815260200191508051906020019080838360005b83811015612e1e578082015181840152602081019050612e03565b50505050905090810190601f168015612e4b5780820380516001836020036101000a031916815260200191505b509250505060405180910390fd5b6040517f08c379a00000000000000000000000000000000000000000000000000000000081526004018080602001828103825260348152602001806130cc6034913960400191505060405180910390fd5b63f23a6e6160e01b7bffffffffffffffffffffffffffffffffffffffffffffffffffffffff1916817bffffffffffffffffffffffffffffffffffffffffffffffffffffffff191614612f47576040517f08c379a00000000000000000000000000000000000000000000000000000000081526004018080602001828103825260288152602001806131006028913960400191505060405180910390fd5b505b505050505050565b600080828401905083811015612fcf576040517f08c379a000000000000000000000000000000000000000000000000000000000815260040180806020018281038252601b8152602001807f536166654d6174683a206164646974696f6e206f766572666c6f77000000000081525060200191505060405180910390fd5b8091505092915050565b612fe38282612ffa565b5050565b600080823b905060008111915050919050565b80600160008481526020019081526020016000209080519060200190613021929190613026565b505050565b828054600181600116156101000203166002900490600052602060002090601f016020900481019282601f1061306757805160ff1916838001178555613095565b82800160010185558215613095579182015b82811115613094578251825591602001919060010190613079565b5b5090506130a291906130a6565b5090565b6130c891905b808211156130c45760008160009055506001016130ac565b5090565b9056fe455243313135353a207472616e7366657220746f206e6f6e2045524331313535526563656976657220696d706c656d656e746572455243313135353a204552433131353552656365697665722072656a656374656420746f6b656e73455243313135353a2062616c616e636520717565727920666f7220746865207a65726f2061646472657373455243313135353a2062617463682062616c616e636520717565727920666f7220746865207a65726f2061646472657373455243313135353a206275726e20616d6f756e7420657863656564732062616c616e6365455243313135353a2063616c6c6572206973206e6f74206f776e6572206e6f7220617070726f766564455243313135353a207472616e7366657220746f20746865207a65726f2061646472657373455243313135353a207472616e736665722063616c6c6572206973206e6f74206f776e6572206e6f7220617070726f7665644f6e6c7920636f6e74726163744f776e65722063616e2063616c6c20746869732066756e6374696f6e2e455243313135353a206275726e2066726f6d20746865207a65726f2061646472657373455243313135353a20696e73756666696369656e742062616c616e636520666f72207472616e73666572455243313135353a2073657474696e6720617070726f76616c2073746174757320666f722073656c66455243313135353a206163636f756e747320616e6420696473206c656e677468206d69736d61746368455243313135353a2069647320616e6420616d6f756e7473206c656e677468206d69736d61746368455243313135353a206d696e7420746f20746865207a65726f2061646472657373a264697066735822122050a58b5783c572e708eea4a6d0d1bfe5b80687ee0d9ac3d2bc58d6aa7e704c7e64736f6c63430006020033",
  "source": "pragma solidity >=0.4.16 <0.9.0;\n\nimport '../utils/Erc1155_6_6.sol';\n\n//import \"@chainlink/contracts/src/v0.6/ChainlinkClient.sol\";\n// SPDX-License-Identifier: MIT\n\ncontract CTOKEN is ERC1155  {\n   \n    \n    string constant private _name = \"CTOKEN\";\n    string constant private _symbol = \"CTOKEN\";\n    uint8 constant public decimals = 5;\n    \n    uint256  public responseFromAPI;\n    uint256 public volume;\n    uint256 public nextTokenID;    \n\n    mapping(uint256 => uint256) private _totalSupply;\n    \n    event LogConstructorInitiated(string nextStep);\n    event LogPriceUpdated(string price);\n    event LogNewProvableQuery(string description);\n    \n    event RecordedData(address acct, string description, string data);\n    \n    address public contractOwner;\n    \n    //modifier to restrict calling the function other than contract_owner\n    modifier onlyContractOwner {\n        require(\n            msg.sender == contractOwner,\n            \"Only contractOwner can call this function.\"\n        );\n        _;\n    }\n\n     // constructor of the class for KOVAN\n    constructor() public ERC1155(\"CTOKEN\") {\n            //address _oracle, string memory _jobId, uint256 _fee\n        contractOwner = msg.sender;\n        //setPublicChainlinkToken();\n      \n    }\n\n    function name() public view returns (string memory) {\n        return _name;\n    }\n\n    function symbol() public view returns (string memory) {\n        return _symbol;\n    }\n\n\n    /*add signature message as another parameter to restrict only authorized user can execute this method*/\n\n    // minting token can only be called by contractOwner \n     function createToken (address account, uint256 tokencount , string memory uri ,bytes memory data) public { \n         require(msg.sender == account || msg.sender == contractOwner,\"Only authorized user can mint\");\n\n             _mint (account, nextTokenID, tokencount, uri,data);             \n                \n            _totalSupply[nextTokenID] += tokencount;\n            nextTokenID++;\n         }\n    // function to burn the token can only be called by contractOwner or _walletApproved\n    function burnToken(address account,uint256 tokenID, uint256 amount) public {\n        require(balanceOf(account, tokenID) > 0, \"No tokens to burn in this wallet\");\n\n        _burn(account,tokenID,amount);\n        _totalSupply[tokenID] -= amount;\n    }\n    \n    \n        /**\n     * @dev Total amount of tokens in with a given companyID.\n     */\n    function totalSupply(uint256 tokenID) public view  returns (uint256) {\n        return _totalSupply[tokenID];\n    }\n    \n    function nextTokenId() public view  returns (uint256) {\n        return nextTokenID;\n    }\n    /**\n     * @dev Indicates weither any token exist with a given id, or not.\n     */\n    function exists(uint256 tokenID) public view  returns (bool) {\n        return totalSupply(tokenID) > 0;\n    }\n    \n        /**\n     * @dev xref:ROOT:erc1155.adoc#batch-operations[Batched] version of {safeTransferFrom}.\n     *\n     * Emits a {TransferBatch} event.\n     *\n     * Requirements:\n     *\n     * - `ids` and `amounts` must have the same length.\n     * - If `to` refers to a smart contract, it must implement {IERC1155Receiver-onERC1155BatchReceived} and return the\n     * acceptance magic value.\n     */\n    function safeBatchTransferFrom(address from,address to,uint256[] memory ids,uint256[] memory amounts,bytes memory data) public override {\n        require(from == _msgSender() || isApprovedForAll(from, _msgSender()),\"ERC1155: transfer caller is not owner nor approved\" );\n        \n            _safeBatchTransferFrom(from, to, ids, amounts, data);\n        \n    }\n          /**\n     * @dev Transfers `amount` tokens of token type `id` from `from` to `to`.\n     *\n     * Emits a {TransferSingle} event.\n     *\n     * Requirements:\n     *\n     * - `to` cannot be the zero address.\n     * - If the caller is not `from`, it must be have been approved to spend ``from``'s tokens via {setApprovalForAll}.\n     * - `from` must have a balance of tokens of type `id` of at least `amount`.\n     * - If `to` refers to a smart contract, it must implement {IERC1155Receiver-onERC1155Received} and return the\n     * acceptance magic value.\n     */\n     /*add signature message as another parameter to restrict only authorized user can execute this method*/\n    function safeTransferFrom(address from,address to,uint256 id,uint256 amount,bytes memory data) public virtual override {\n        require(msg.sender == contractOwner || msg.sender == from || from == _msgSender() || isApprovedForAll(from, _msgSender()),\"ERC1155: caller is not owner nor approved\");\n        \n            _safeTransferFrom(from, to, id, amount, data);\n    }\n    \n     \n     // contract recieving ether\n     //The function cannot have arguments, cannot return anything and must have external visibility and payable state mutability.\n     receive() external payable {\n            // React to receiving ether\n        }\n    /**\n     * Receive the response in the form of uint256\n     */ \n    //function fulfill(bytes32 _requestId, uint256 _volume) public recordChainlinkFulfillment(_requestId)\n    //{\n    //    responseFromAPI = _volume;\n    //}\n    \n    //getting Rate of interest from api\n    function responseInterestFromApi() public view returns (uint256)\n    {\n        return responseFromAPI;\n    }\n    \n    function transferContractownership(address _address) public onlyContractOwner\n    {\n        contractOwner = _address;\n    }\n    \n   \n    function stringToBytes32(string memory source) public pure returns (bytes32 result) {\n    bytes memory tempEmptyStringTest = bytes(source);\n    if (tempEmptyStringTest.length == 0) {\n        return 0x0;\n    }\n\n    assembly {\n        result := mload(add(source, 32))\n    }\n}\n    \n    \n}",
  "sourcePath": "/Users/veteran/Documents/blockchain/Nagesh/contracts/token/ctoken.sol",
  "compiler": {
    "name": "solc",
    "version": "0.6.2+commit.bacdbe57.Emscripten.clang"
  },
  "schemaVersion": "3.4.8",
  "updatedAt": "2022-08-16T19:04:43.379Z",
  "networkType": "ethereum",
  "devdoc": {
    "methods": {
      "balanceOf(address,uint256)": {
        "details": "See {IERC1155-balanceOf}.     * Requirements:     * - `account` cannot be the zero address."
      },
      "balanceOfBatch(address[],uint256[])": {
        "details": "See {IERC1155-balanceOfBatch}.     * Requirements:     * - `accounts` and `ids` must have the same length."
      },
      "exists(uint256)": {
        "details": "Indicates weither any token exist with a given id, or not."
      },
      "isApprovedForAll(address,address)": {
        "details": "See {IERC1155-isApprovedForAll}."
      },
      "safeBatchTransferFrom(address,address,uint256[],uint256[],bytes)": {
        "details": "xref:ROOT:erc1155.adoc#batch-operations[Batched] version of {safeTransferFrom}.     * Emits a {TransferBatch} event.     * Requirements:     * - `ids` and `amounts` must have the same length. - If `to` refers to a smart contract, it must implement {IERC1155Receiver-onERC1155BatchReceived} and return the acceptance magic value."
      },
      "safeTransferFrom(address,address,uint256,uint256,bytes)": {
        "details": "Transfers `amount` tokens of token type `id` from `from` to `to`.     * Emits a {TransferSingle} event.     * Requirements:     * - `to` cannot be the zero address. - If the caller is not `from`, it must be have been approved to spend ``from``'s tokens via {setApprovalForAll}. - `from` must have a balance of tokens of type `id` of at least `amount`. - If `to` refers to a smart contract, it must implement {IERC1155Receiver-onERC1155Received} and return the acceptance magic value."
      },
      "setApprovalForAll(address,bool)": {
        "details": "See {IERC1155-setApprovalForAll}."
      },
      "supportsInterface(bytes4)": {
        "details": "See {IERC165-supportsInterface}.     * Time complexity O(1), guaranteed to always use less than 30 000 gas."
      },
      "totalSupply(uint256)": {
        "details": "Total amount of tokens in with a given companyID."
      },
      "uri(uint256)": {
        "details": "See {IERC1155MetadataURI-uri}.     * This implementation returns the same URI for *all* token types. It relies on the token type ID substitution mechanism https://eips.ethereum.org/EIPS/eip-1155#metadata[defined in the EIP].     * Clients calling this function must replace the `\\{id\\}` substring with the actual token type ID."
      }
    }
  },
  "userdoc": {
    "methods": {
      "responseInterestFromApi()": {
        "notice": "Receive the response in the form of uint256"
      }
    }
  }
}