{
  "contractName": "HTLC",
  "abi": [
    {
      "inputs": [
        {
          "internalType": "address",
          "name": "erc_1155_token_address",
          "type": "address"
        }
      ],
      "stateMutability": "nonpayable",
      "type": "constructor"
    },
    {
      "anonymous": false,
      "inputs": [
        {
          "indexed": true,
          "internalType": "address",
          "name": "_withdrawee",
          "type": "address"
        },
        {
          "indexed": false,
          "internalType": "uint256",
          "name": "_amount",
          "type": "uint256"
        },
        {
          "indexed": false,
          "internalType": "uint256",
          "name": "_tokenId",
          "type": "uint256"
        },
        {
          "indexed": false,
          "internalType": "uint256",
          "name": "_orderId",
          "type": "uint256"
        }
      ],
      "name": "ClosedOrder",
      "type": "event"
    },
    {
      "anonymous": false,
      "inputs": [
        {
          "indexed": true,
          "internalType": "address",
          "name": "_depositor",
          "type": "address"
        },
        {
          "indexed": true,
          "internalType": "address",
          "name": "_receivingContract",
          "type": "address"
        },
        {
          "indexed": false,
          "internalType": "uint256",
          "name": "_orderId",
          "type": "uint256"
        },
        {
          "indexed": false,
          "internalType": "uint256",
          "name": "_tokenId",
          "type": "uint256"
        },
        {
          "indexed": false,
          "internalType": "uint256",
          "name": "_tokenAmount",
          "type": "uint256"
        }
      ],
      "name": "DepositedOrder",
      "type": "event"
    },
    {
      "anonymous": false,
      "inputs": [
        {
          "indexed": true,
          "internalType": "address",
          "name": "_ctokenReceiver",
          "type": "address"
        },
        {
          "indexed": true,
          "internalType": "address",
          "name": "_ttokenReceiver",
          "type": "address"
        },
        {
          "indexed": false,
          "internalType": "uint256",
          "name": "_ctokenAmount",
          "type": "uint256"
        },
        {
          "indexed": false,
          "internalType": "uint256",
          "name": "_ttokenAmount",
          "type": "uint256"
        },
        {
          "indexed": false,
          "internalType": "uint256",
          "name": "_ctokenId",
          "type": "uint256"
        },
        {
          "indexed": false,
          "internalType": "uint256",
          "name": "_ttokenId",
          "type": "uint256"
        },
        {
          "indexed": false,
          "internalType": "uint256",
          "name": "_orderId",
          "type": "uint256"
        }
      ],
      "name": "OpenedOrder",
      "type": "event"
    },
    {
      "anonymous": false,
      "inputs": [
        {
          "indexed": true,
          "internalType": "address",
          "name": "_to",
          "type": "address"
        },
        {
          "indexed": false,
          "internalType": "uint256",
          "name": "_amount",
          "type": "uint256"
        },
        {
          "indexed": false,
          "internalType": "uint256",
          "name": "_tokenId",
          "type": "uint256"
        },
        {
          "indexed": false,
          "internalType": "uint256",
          "name": "_orderId",
          "type": "uint256"
        }
      ],
      "name": "RefundOrder",
      "type": "event"
    },
    {
      "inputs": [
        {
          "internalType": "bytes4",
          "name": "interfaceId",
          "type": "bytes4"
        }
      ],
      "name": "supportsInterface",
      "outputs": [
        {
          "internalType": "bool",
          "name": "",
          "type": "bool"
        }
      ],
      "stateMutability": "view",
      "type": "function",
      "constant": true
    },
    {
      "inputs": [
        {
          "internalType": "uint256",
          "name": "_orderId",
          "type": "uint256"
        },
        {
          "internalType": "uint256",
          "name": "_ctokenId",
          "type": "uint256"
        },
        {
          "internalType": "uint256",
          "name": "_ttokenId",
          "type": "uint256"
        },
        {
          "internalType": "uint256",
          "name": "_ctokenAmount",
          "type": "uint256"
        },
        {
          "internalType": "uint256",
          "name": "_ttokenAmount",
          "type": "uint256"
        },
        {
          "internalType": "address",
          "name": "_ctokenReceiver",
          "type": "address"
        },
        {
          "internalType": "address",
          "name": "_ttokenReceiver",
          "type": "address"
        },
        {
          "internalType": "bytes32",
          "name": "_secretKey",
          "type": "bytes32"
        },
        {
          "internalType": "bytes32",
          "name": "_secretHash",
          "type": "bytes32"
        }
      ],
      "name": "openOrder",
      "outputs": [],
      "stateMutability": "nonpayable",
      "type": "function"
    },
    {
      "inputs": [
        {
          "internalType": "uint256",
          "name": "_orderId",
          "type": "uint256"
        }
      ],
      "name": "depositOrder",
      "outputs": [],
      "stateMutability": "nonpayable",
      "type": "function"
    },
    {
      "inputs": [
        {
          "internalType": "uint256",
          "name": "_orderId",
          "type": "uint256"
        },
        {
          "internalType": "bytes32",
          "name": "_secretKey",
          "type": "bytes32"
        }
      ],
      "name": "withdrawOrder",
      "outputs": [],
      "stateMutability": "nonpayable",
      "type": "function"
    },
    {
      "inputs": [
        {
          "internalType": "uint256",
          "name": "_orderId",
          "type": "uint256"
        }
      ],
      "name": "refundOrder",
      "outputs": [],
      "stateMutability": "nonpayable",
      "type": "function"
    },
    {
      "inputs": [
        {
          "internalType": "uint256",
          "name": "_orderId",
          "type": "uint256"
        }
      ],
      "name": "checkOrder",
      "outputs": [
        {
          "internalType": "address",
          "name": "_ctokenReceiver",
          "type": "address"
        },
        {
          "internalType": "address",
          "name": "_ttokenReceiver",
          "type": "address"
        },
        {
          "internalType": "uint256",
          "name": "_ctokenReceiverExpiration",
          "type": "uint256"
        },
        {
          "internalType": "uint256",
          "name": "_ttokenReceiverExpiration",
          "type": "uint256"
        },
        {
          "internalType": "uint256",
          "name": "_ctokenAmount",
          "type": "uint256"
        },
        {
          "internalType": "uint256",
          "name": "_ttokenAmount",
          "type": "uint256"
        },
        {
          "internalType": "uint256",
          "name": "_ctokenId",
          "type": "uint256"
        },
        {
          "internalType": "uint256",
          "name": "_ttokenId",
          "type": "uint256"
        },
        {
          "internalType": "enum HTLC.AtomicSwapState",
          "name": "_atomicSwapState",
          "type": "uint8"
        },
        {
          "internalType": "bool",
          "name": "_funded",
          "type": "bool"
        },
        {
          "internalType": "bytes32",
          "name": "_secretKey",
          "type": "bytes32"
        }
      ],
      "stateMutability": "view",
      "type": "function",
      "constant": true
    },
    {
      "inputs": [
        {
          "internalType": "address",
          "name": "operator",
          "type": "address"
        },
        {
          "internalType": "address",
          "name": "from",
          "type": "address"
        },
        {
          "internalType": "uint256",
          "name": "id",
          "type": "uint256"
        },
        {
          "internalType": "uint256",
          "name": "value",
          "type": "uint256"
        },
        {
          "internalType": "bytes",
          "name": "data",
          "type": "bytes"
        }
      ],
      "name": "onERC1155Received",
      "outputs": [
        {
          "internalType": "bytes4",
          "name": "",
          "type": "bytes4"
        }
      ],
      "stateMutability": "nonpayable",
      "type": "function"
    },
    {
      "inputs": [
        {
          "internalType": "address",
          "name": "operator",
          "type": "address"
        },
        {
          "internalType": "address",
          "name": "from",
          "type": "address"
        },
        {
          "internalType": "uint256[]",
          "name": "ids",
          "type": "uint256[]"
        },
        {
          "internalType": "uint256[]",
          "name": "values",
          "type": "uint256[]"
        },
        {
          "internalType": "bytes",
          "name": "data",
          "type": "bytes"
        }
      ],
      "name": "onERC1155BatchReceived",
      "outputs": [
        {
          "internalType": "bytes4",
          "name": "",
          "type": "bytes4"
        }
      ],
      "stateMutability": "nonpayable",
      "type": "function"
    }
  ],
  "bytecode": "0x60806040523480156200001157600080fd5b506040516200487638038062004876833981810160405260208110156200003757600080fd5b8101908080519060200190929190505050620000606301ffc9a760e01b6200012c60201b60201c565b6200008163bc197c8160e01b63f23a6e6160e01b186200012c60201b60201c565b80600160006101000a81548173ffffffffffffffffffffffffffffffffffffffff021916908373ffffffffffffffffffffffffffffffffffffffff160217905550600160009054906101000a900473ffffffffffffffffffffffffffffffffffffffff16600460006101000a81548173ffffffffffffffffffffffffffffffffffffffff021916908373ffffffffffffffffffffffffffffffffffffffff1602179055505062000235565b63ffffffff60e01b817bffffffffffffffffffffffffffffffffffffffffffffffffffffffff19161415620001c9576040517f08c379a000000000000000000000000000000000000000000000000000000000815260040180806020018281038252601c8152602001807f4552433136353a20696e76616c696420696e746572666163652069640000000081525060200191505060405180910390fd5b6001600080837bffffffffffffffffffffffffffffffffffffffffffffffffffffffff19167bffffffffffffffffffffffffffffffffffffffffffffffffffffffff1916815260200190815260200160002060006101000a81548160ff02191690831515021790555050565b61463180620002456000396000f3fe608060405234801561001057600080fd5b50600436106100885760003560e01c8063af35d8e71161005b578063af35d8e7146102bd578063bc197c81146102f5578063c018c457146104aa578063f23a6e61146104d857610088565b806301ffc9a71461008d57806307098fca146100f25780633968f4291461012057806348efc672146101cb575b600080fd5b6100d8600480360360208110156100a357600080fd5b8101908080357bffffffffffffffffffffffffffffffffffffffffffffffffffffffff191690602001909291905050506105f7565b604051808215151515815260200191505060405180910390f35b61011e6004803603602081101561010857600080fd5b810190808035906020019092919050505061065e565b005b6101c9600480360361012081101561013757600080fd5b810190808035906020019092919080359060200190929190803590602001909291908035906020019092919080359060200190929190803573ffffffffffffffffffffffffffffffffffffffff169060200190929190803573ffffffffffffffffffffffffffffffffffffffff169060200190929190803590602001909291908035906020019092919050505061164a565b005b6101f7600480360360208110156101e157600080fd5b81019080803590602001909291905050506127b1565b604051808c73ffffffffffffffffffffffffffffffffffffffff1673ffffffffffffffffffffffffffffffffffffffff1681526020018b73ffffffffffffffffffffffffffffffffffffffff1673ffffffffffffffffffffffffffffffffffffffff1681526020018a815260200189815260200188815260200187815260200186815260200185815260200184600381111561028f57fe5b60ff168152602001831515151581526020018281526020019b50505050505050505050505060405180910390f35b6102f3600480360360408110156102d357600080fd5b810190808035906020019092919080359060200190929190505050612a91565b005b610456600480360360a081101561030b57600080fd5b81019080803573ffffffffffffffffffffffffffffffffffffffff169060200190929190803573ffffffffffffffffffffffffffffffffffffffff1690602001909291908035906020019064010000000081111561036857600080fd5b82018360208201111561037a57600080fd5b8035906020019184602083028401116401000000008311171561039c57600080fd5b9091929391929390803590602001906401000000008111156103bd57600080fd5b8201836020820111156103cf57600080fd5b803590602001918460208302840111640100000000831117156103f157600080fd5b90919293919293908035906020019064010000000081111561041257600080fd5b82018360208201111561042457600080fd5b8035906020019184600183028401116401000000008311171561044657600080fd5b909192939192939050505061381f565b60405180827bffffffffffffffffffffffffffffffffffffffffffffffffffffffff19167bffffffffffffffffffffffffffffffffffffffffffffffffffffffff1916815260200191505060405180910390f35b6104d6600480360360208110156104c057600080fd5b8101908080359060200190929190505050613837565b005b6105a3600480360360a08110156104ee57600080fd5b81019080803573ffffffffffffffffffffffffffffffffffffffff169060200190929190803573ffffffffffffffffffffffffffffffffffffffff16906020019092919080359060200190929190803590602001909291908035906020019064010000000081111561055f57600080fd5b82018360208201111561057157600080fd5b8035906020019184600183028401116401000000008311171561059357600080fd5b9091929391929390505050614473565b60405180827bffffffffffffffffffffffffffffffffffffffffffffffffffffffff19167bffffffffffffffffffffffffffffffffffffffffffffffffffffffff1916815260200191505060405180910390f35b6000806000837bffffffffffffffffffffffffffffffffffffffffffffffffffffffff19167bffffffffffffffffffffffffffffffffffffffffffffffffffffffff1916815260200190815260200160002060009054906101000a900460ff169050919050565b6001600381111561066b57fe5b6003600083815260200190815260200160002060009054906101000a900460ff16600381111561069757fe5b1461070a576040517f08c379a00000000000000000000000000000000000000000000000000000000081526004018080602001828103825260108152602001807f6f72646572206e6f74206f70656e65640000000000000000000000000000000081525060200191505060405180910390fd5b610712614489565b60026000838152602001908152602001600020604051806101a00160405290816000820160009054906101000a900473ffffffffffffffffffffffffffffffffffffffff1673ffffffffffffffffffffffffffffffffffffffff1673ffffffffffffffffffffffffffffffffffffffff1681526020016001820160009054906101000a900473ffffffffffffffffffffffffffffffffffffffff1673ffffffffffffffffffffffffffffffffffffffff1673ffffffffffffffffffffffffffffffffffffffff1681526020016002820160009054906101000a900473ffffffffffffffffffffffffffffffffffffffff1673ffffffffffffffffffffffffffffffffffffffff1673ffffffffffffffffffffffffffffffffffffffff16815260200160038201548152602001600482015481526020016005820154815260200160068201548152602001600782015481526020016008820154815260200160098201548152602001600a8201548152602001600b8201548152602001600c820160009054906101000a900460ff1615151515815250509050806040015173ffffffffffffffffffffffffffffffffffffffff163373ffffffffffffffffffffffffffffffffffffffff161415610950576040517f08c379a00000000000000000000000000000000000000000000000000000000081526004018080602001828103825260118152602001807f696e76616c6964206465706f7369746f7200000000000000000000000000000081525060200191505060405180910390fd5b806000015173ffffffffffffffffffffffffffffffffffffffff163373ffffffffffffffffffffffffffffffffffffffff161415610fcc578061014001514210610a02576040517f08c379a000000000000000000000000000000000000000000000000000000000815260040180806020018281038252600d8152602001807f65787069726564206f726465720000000000000000000000000000000000000081525060200191505060405180910390fd5b60001515816101800151151514610a81576040517f08c379a000000000000000000000000000000000000000000000000000000000815260040180806020018281038252600c8152602001807f66756e646564206f72646572000000000000000000000000000000000000000081525060200191505060405180910390fd5b60405160200180807f54544f4b454e0000000000000000000000000000000000000000000000000000815250600601905060405160208183030381529060405280519060200120600460009054906101000a900473ffffffffffffffffffffffffffffffffffffffff1673ffffffffffffffffffffffffffffffffffffffff166306fdde036040518163ffffffff1660e01b815260040160006040518083038186803b158015610b3057600080fd5b505afa158015610b44573d6000803e3d6000fd5b505050506040513d6000823e3d601f19601f820116820180604052506020811015610b6e57600080fd5b8101908080516040519392919084640100000000821115610b8e57600080fd5b83820191506020820185811115610ba457600080fd5b8251866001820283011164010000000082111715610bc157600080fd5b8083526020830192505050908051906020019080838360005b83811015610bf5578082015181840152602081019050610bda565b50505050905090810190601f168015610c225780820380516001836020036101000a031916815260200191505b506040525050506040516020018082805190602001908083835b60208310610c5f5780518252602082019150602081019050602083039250610c3c565b6001836020036101000a038019825116818451168082178552505050505050905001915050604051602081830303815290604052805190602001201415610f4d57600460009054906101000a900473ffffffffffffffffffffffffffffffffffffffff1673ffffffffffffffffffffffffffffffffffffffff1663e985e9c533306040518363ffffffff1660e01b8152600401808373ffffffffffffffffffffffffffffffffffffffff1673ffffffffffffffffffffffffffffffffffffffff1681526020018273ffffffffffffffffffffffffffffffffffffffff1673ffffffffffffffffffffffffffffffffffffffff1681526020019250505060206040518083038186803b158015610d7357600080fd5b505afa158015610d87573d6000803e3d6000fd5b505050506040513d6020811015610d9d57600080fd5b8101908080519060200190929190505050610e03576040517f08c379a000000000000000000000000000000000000000000000000000000000815260040180806020018281038252602b81526020018061453c602b913960400191505060405180910390fd5b600460009054906101000a900473ffffffffffffffffffffffffffffffffffffffff1673ffffffffffffffffffffffffffffffffffffffff1663f242432a33308461010001518560c001516040518563ffffffff1660e01b8152600401808573ffffffffffffffffffffffffffffffffffffffff1673ffffffffffffffffffffffffffffffffffffffff1681526020018473ffffffffffffffffffffffffffffffffffffffff1673ffffffffffffffffffffffffffffffffffffffff1681526020018381526020018281526020018060200182810382526000815260200160200195505050505050600060405180830381600087803b158015610f0557600080fd5b505af1158015610f19573d6000803e3d6000fd5b50505050600160026000848152602001908152602001600020600c0160006101000a81548160ff0219169083151502179055505b3073ffffffffffffffffffffffffffffffffffffffff163373ffffffffffffffffffffffffffffffffffffffff167f46b9c2e0ac42648c6a6eee674f761bb2af5686479c1ae5f33434a82fa46fa520848461010001518560c0015160405180848152602001838152602001828152602001935050505060405180910390a35b806020015173ffffffffffffffffffffffffffffffffffffffff163373ffffffffffffffffffffffffffffffffffffffff16141561164657806101200151421061107e576040517f08c379a000000000000000000000000000000000000000000000000000000000815260040180806020018281038252600d8152602001807f65787069726564206f726465720000000000000000000000000000000000000081525060200191505060405180910390fd5b600015158161018001511515146110fd576040517f08c379a000000000000000000000000000000000000000000000000000000000815260040180806020018281038252600c8152602001807f66756e646564206f72646572000000000000000000000000000000000000000081525060200191505060405180910390fd5b60405160200180807f43544f4b454e0000000000000000000000000000000000000000000000000000815250600601905060405160208183030381529060405280519060200120600460009054906101000a900473ffffffffffffffffffffffffffffffffffffffff1673ffffffffffffffffffffffffffffffffffffffff166306fdde036040518163ffffffff1660e01b815260040160006040518083038186803b1580156111ac57600080fd5b505afa1580156111c0573d6000803e3d6000fd5b505050506040513d6000823e3d601f19601f8201168201806040525060208110156111ea57600080fd5b810190808051604051939291908464010000000082111561120a57600080fd5b8382019150602082018581111561122057600080fd5b825186600182028301116401000000008211171561123d57600080fd5b8083526020830192505050908051906020019080838360005b83811015611271578082015181840152602081019050611256565b50505050905090810190601f16801561129e5780820380516001836020036101000a031916815260200191505b506040525050506040516020018082805190602001908083835b602083106112db57805182526020820191506020810190506020830392506112b8565b6001836020036101000a0380198251168184511680821785525050505050509050019150506040516020818303038152906040528051906020012014156115c857600460009054906101000a900473ffffffffffffffffffffffffffffffffffffffff1673ffffffffffffffffffffffffffffffffffffffff1663e985e9c533306040518363ffffffff1660e01b8152600401808373ffffffffffffffffffffffffffffffffffffffff1673ffffffffffffffffffffffffffffffffffffffff1681526020018273ffffffffffffffffffffffffffffffffffffffff1673ffffffffffffffffffffffffffffffffffffffff1681526020019250505060206040518083038186803b1580156113ef57600080fd5b505afa158015611403573d6000803e3d6000fd5b505050506040513d602081101561141957600080fd5b810190808051906020019092919050505061147f576040517f08c379a000000000000000000000000000000000000000000000000000000000815260040180806020018281038252602b8152602001806145d1602b913960400191505060405180910390fd5b600460009054906101000a900473ffffffffffffffffffffffffffffffffffffffff1673ffffffffffffffffffffffffffffffffffffffff1663f242432a33308460e001518560a001516040518563ffffffff1660e01b8152600401808573ffffffffffffffffffffffffffffffffffffffff1673ffffffffffffffffffffffffffffffffffffffff1681526020018473ffffffffffffffffffffffffffffffffffffffff1673ffffffffffffffffffffffffffffffffffffffff1681526020018381526020018281526020018060200182810382526000815260200160200195505050505050600060405180830381600087803b15801561158057600080fd5b505af1158015611594573d6000803e3d6000fd5b50505050600160026000848152602001908152602001600020600c0160006101000a81548160ff0219169083151502179055505b3073ffffffffffffffffffffffffffffffffffffffff163373ffffffffffffffffffffffffffffffffffffffff167f46b9c2e0ac42648c6a6eee674f761bb2af5686479c1ae5f33434a82fa46fa520848460e001518560a0015160405180848152602001838152602001828152602001935050505060405180910390a35b5050565b6000600381111561165757fe5b600360008b815260200190815260200160002060009054906101000a900460ff16600381111561168357fe5b146116f6576040517f08c379a00000000000000000000000000000000000000000000000000000000081526004018080602001828103825260118152602001807f6578697374696e67206f7264657220696400000000000000000000000000000081525060200191505060405180910390fd5b600282604051602001808281526020019150506040516020818303038152906040526040518082805190602001908083835b6020831061174b5780518252602082019150602081019050602083039250611728565b6001836020036101000a038019825116818451168082178552505050505050905001915050602060405180830381855afa15801561178d573d6000803e3d6000fd5b5050506040513d60208110156117a257600080fd5b81019080805190602001909291905050508114611827576040517f08c379a000000000000000000000000000000000000000000000000000000000815260040180806020018281038252600e8152602001807f696e76616c69642073656372657400000000000000000000000000000000000081525060200191505060405180910390fd5b8273ffffffffffffffffffffffffffffffffffffffff168473ffffffffffffffffffffffffffffffffffffffff1614156118ac576040517f08c379a00000000000000000000000000000000000000000000000000000000081526004018080602001828103825260388152602001806145676038913960400191505060405180910390fd5b8373ffffffffffffffffffffffffffffffffffffffff163373ffffffffffffffffffffffffffffffffffffffff16148061191157508273ffffffffffffffffffffffffffffffffffffffff163373ffffffffffffffffffffffffffffffffffffffff16145b611966576040517f08c379a000000000000000000000000000000000000000000000000000000000815260040180806020018281038252603281526020018061459f6032913960400191505060405180910390fd5b60008060003373ffffffffffffffffffffffffffffffffffffffff168773ffffffffffffffffffffffffffffffffffffffff161415611e465761070842019250610e104201915060405160200180807f54544f4b454e0000000000000000000000000000000000000000000000000000815250600601905060405160208183030381529060405280519060200120600460009054906101000a900473ffffffffffffffffffffffffffffffffffffffff1673ffffffffffffffffffffffffffffffffffffffff166306fdde036040518163ffffffff1660e01b815260040160006040518083038186803b158015611a5c57600080fd5b505afa158015611a70573d6000803e3d6000fd5b505050506040513d6000823e3d601f19601f820116820180604052506020811015611a9a57600080fd5b8101908080516040519392919084640100000000821115611aba57600080fd5b83820191506020820185811115611ad057600080fd5b8251866001820283011164010000000082111715611aed57600080fd5b8083526020830192505050908051906020019080838360005b83811015611b21578082015181840152602081019050611b06565b50505050905090810190601f168015611b4e5780820380516001836020036101000a031916815260200191505b506040525050506040516020018082805190602001908083835b60208310611b8b5780518252602082019150602081019050602083039250611b68565b6001836020036101000a038019825116818451168082178552505050505050905001915050604051602081830303815290604052805190602001201415611e4557600460009054906101000a900473ffffffffffffffffffffffffffffffffffffffff1673ffffffffffffffffffffffffffffffffffffffff1663e985e9c533306040518363ffffffff1660e01b8152600401808373ffffffffffffffffffffffffffffffffffffffff1673ffffffffffffffffffffffffffffffffffffffff1681526020018273ffffffffffffffffffffffffffffffffffffffff1673ffffffffffffffffffffffffffffffffffffffff1681526020019250505060206040518083038186803b158015611c9f57600080fd5b505afa158015611cb3573d6000803e3d6000fd5b505050506040513d6020811015611cc957600080fd5b8101908080519060200190929190505050611d2f576040517f08c379a000000000000000000000000000000000000000000000000000000000815260040180806020018281038252602b81526020018061453c602b913960400191505060405180910390fd5b600460009054906101000a900473ffffffffffffffffffffffffffffffffffffffff1673ffffffffffffffffffffffffffffffffffffffff1663f242432a33308d8c6040518563ffffffff1660e01b8152600401808573ffffffffffffffffffffffffffffffffffffffff1673ffffffffffffffffffffffffffffffffffffffff1681526020018473ffffffffffffffffffffffffffffffffffffffff1673ffffffffffffffffffffffffffffffffffffffff1681526020018381526020018281526020018060200182810382526000815260200160200195505050505050600060405180830381600087803b158015611e2857600080fd5b505af1158015611e3c573d6000803e3d6000fd5b50505050600190505b5b3373ffffffffffffffffffffffffffffffffffffffff168673ffffffffffffffffffffffffffffffffffffffff16141561232157610e10420192506107084201915060405160200180807f43544f4b454e0000000000000000000000000000000000000000000000000000815250600601905060405160208183030381529060405280519060200120600460009054906101000a900473ffffffffffffffffffffffffffffffffffffffff1673ffffffffffffffffffffffffffffffffffffffff166306fdde036040518163ffffffff1660e01b815260040160006040518083038186803b158015611f3757600080fd5b505afa158015611f4b573d6000803e3d6000fd5b505050506040513d6000823e3d601f19601f820116820180604052506020811015611f7557600080fd5b8101908080516040519392919084640100000000821115611f9557600080fd5b83820191506020820185811115611fab57600080fd5b8251866001820283011164010000000082111715611fc857600080fd5b8083526020830192505050908051906020019080838360005b83811015611ffc578082015181840152602081019050611fe1565b50505050905090810190601f1680156120295780820380516001836020036101000a031916815260200191505b506040525050506040516020018082805190602001908083835b602083106120665780518252602082019150602081019050602083039250612043565b6001836020036101000a03801982511681845116808217855250505050505090500191505060405160208183030381529060405280519060200120141561232057600460009054906101000a900473ffffffffffffffffffffffffffffffffffffffff1673ffffffffffffffffffffffffffffffffffffffff1663e985e9c533306040518363ffffffff1660e01b8152600401808373ffffffffffffffffffffffffffffffffffffffff1673ffffffffffffffffffffffffffffffffffffffff1681526020018273ffffffffffffffffffffffffffffffffffffffff1673ffffffffffffffffffffffffffffffffffffffff1681526020019250505060206040518083038186803b15801561217a57600080fd5b505afa15801561218e573d6000803e3d6000fd5b505050506040513d60208110156121a457600080fd5b810190808051906020019092919050505061220a576040517f08c379a000000000000000000000000000000000000000000000000000000000815260040180806020018281038252602b8152602001806145d1602b913960400191505060405180910390fd5b600460009054906101000a900473ffffffffffffffffffffffffffffffffffffffff1673ffffffffffffffffffffffffffffffffffffffff1663f242432a33308e8d6040518563ffffffff1660e01b8152600401808573ffffffffffffffffffffffffffffffffffffffff1673ffffffffffffffffffffffffffffffffffffffff1681526020018473ffffffffffffffffffffffffffffffffffffffff1673ffffffffffffffffffffffffffffffffffffffff1681526020018381526020018281526020018060200182810382526000815260200160200195505050505050600060405180830381600087803b15801561230357600080fd5b505af1158015612317573d6000803e3d6000fd5b50505050600190505b5b6001600360008e815260200190815260200160002060006101000a81548160ff0219169083600381111561235157fe5b0217905550604051806101a001604052808873ffffffffffffffffffffffffffffffffffffffff1681526020018773ffffffffffffffffffffffffffffffffffffffff1681526020013373ffffffffffffffffffffffffffffffffffffffff1681526020018581526020016000801b81526020018a81526020018981526020018c81526020018b81526020018481526020018381526020018d8152602001821515815250600260008e815260200190815260200160002060008201518160000160006101000a81548173ffffffffffffffffffffffffffffffffffffffff021916908373ffffffffffffffffffffffffffffffffffffffff16021790555060208201518160010160006101000a81548173ffffffffffffffffffffffffffffffffffffffff021916908373ffffffffffffffffffffffffffffffffffffffff16021790555060408201518160020160006101000a81548173ffffffffffffffffffffffffffffffffffffffff021916908373ffffffffffffffffffffffffffffffffffffffff160217905550606082015181600301556080820151816004015560a0820151816005015560c0820151816006015560e082015181600701556101008201518160080155610120820151816009015561014082015181600a015561016082015181600b015561018082015181600c0160006101000a81548160ff021916908315150217905550905050612567614489565b600260008e8152602001908152602001600020604051806101a00160405290816000820160009054906101000a900473ffffffffffffffffffffffffffffffffffffffff1673ffffffffffffffffffffffffffffffffffffffff1673ffffffffffffffffffffffffffffffffffffffff1681526020016001820160009054906101000a900473ffffffffffffffffffffffffffffffffffffffff1673ffffffffffffffffffffffffffffffffffffffff1673ffffffffffffffffffffffffffffffffffffffff1681526020016002820160009054906101000a900473ffffffffffffffffffffffffffffffffffffffff1673ffffffffffffffffffffffffffffffffffffffff1673ffffffffffffffffffffffffffffffffffffffff16815260200160038201548152602001600482015481526020016005820154815260200160068201548152602001600782015481526020016008820154815260200160098201548152602001600a8201548152602001600b8201548152602001600c820160009054906101000a900460ff1615151515815250509050806020015173ffffffffffffffffffffffffffffffffffffffff16816000015173ffffffffffffffffffffffffffffffffffffffff167f9679f22a5491b73a4795e2bc021bd15a33761a2e51d163b3679bd90a7eb0db768360a001518460c001518560e00151866101000151876101600151604051808681526020018581526020018481526020018381526020018281526020019550505050505060405180910390a350505050505050505050505050565b60008060008060008060008060008060008060038111156127ce57fe5b600360008e815260200190815260200160002060009054906101000a900460ff1660038111156127fa57fe5b141561286e576040517f08c379a000000000000000000000000000000000000000000000000000000000815260040180806020018281038252600a8152602001807f696e76616c69642049640000000000000000000000000000000000000000000081525060200191505060405180910390fd5b612876614489565b600260008e8152602001908152602001600020604051806101a00160405290816000820160009054906101000a900473ffffffffffffffffffffffffffffffffffffffff1673ffffffffffffffffffffffffffffffffffffffff1673ffffffffffffffffffffffffffffffffffffffff1681526020016001820160009054906101000a900473ffffffffffffffffffffffffffffffffffffffff1673ffffffffffffffffffffffffffffffffffffffff1673ffffffffffffffffffffffffffffffffffffffff1681526020016002820160009054906101000a900473ffffffffffffffffffffffffffffffffffffffff1673ffffffffffffffffffffffffffffffffffffffff1673ffffffffffffffffffffffffffffffffffffffff16815260200160038201548152602001600482015481526020016005820154815260200160068201548152602001600782015481526020016008820154815260200160098201548152602001600a8201548152602001600b8201548152602001600c820160009054906101000a900460ff16151515158152505090506000600360008f815260200190815260200160002060009054906101000a900460ff169050816000015182602001518361012001518461014001518560a001518660c001518760e00151886101000151888a61018001518b608001519c509c509c509c509c509c509c509c509c509c509c50505091939597999b90929496989a50565b60016003811115612a9e57fe5b6003600084815260200190815260200160002060009054906101000a900460ff166003811115612aca57fe5b14612b3d576040517f08c379a00000000000000000000000000000000000000000000000000000000081526004018080602001828103825260108152602001807f6f72646572206e6f74206f70656e65640000000000000000000000000000000081525060200191505060405180910390fd5b612b45614489565b60026000848152602001908152602001600020604051806101a00160405290816000820160009054906101000a900473ffffffffffffffffffffffffffffffffffffffff1673ffffffffffffffffffffffffffffffffffffffff1673ffffffffffffffffffffffffffffffffffffffff1681526020016001820160009054906101000a900473ffffffffffffffffffffffffffffffffffffffff1673ffffffffffffffffffffffffffffffffffffffff1673ffffffffffffffffffffffffffffffffffffffff1681526020016002820160009054906101000a900473ffffffffffffffffffffffffffffffffffffffff1673ffffffffffffffffffffffffffffffffffffffff1673ffffffffffffffffffffffffffffffffffffffff16815260200160038201548152602001600482015481526020016005820154815260200160068201548152602001600782015481526020016008820154815260200160098201548152602001600a8201548152602001600b8201548152602001600c820160009054906101000a900460ff161515151581525050905060011515816101800151151514612d5c576040517f08c379a00000000000000000000000000000000000000000000000000000000081526004018080602001828103825260108152602001807f6f72646572206e6f742066756e6465640000000000000000000000000000000081525060200191505060405180910390fd5b600282604051602001808281526020019150506040516020818303038152906040526040518082805190602001908083835b60208310612db15780518252602082019150602081019050602083039250612d8e565b6001836020036101000a038019825116818451168082178552505050505050905001915050602060405180830381855afa158015612df3573d6000803e3d6000fd5b5050506040513d6020811015612e0857600080fd5b8101908080519060200190929190505050816060015114612e91576040517f08c379a000000000000000000000000000000000000000000000000000000000815260040180806020018281038252600e8152602001807f696e76616c69642073656372657400000000000000000000000000000000000081525060200191505060405180910390fd5b60008060405160200180807f54544f4b454e0000000000000000000000000000000000000000000000000000815250600601905060405160208183030381529060405280519060200120600460009054906101000a900473ffffffffffffffffffffffffffffffffffffffff1673ffffffffffffffffffffffffffffffffffffffff166306fdde036040518163ffffffff1660e01b815260040160006040518083038186803b158015612f4357600080fd5b505afa158015612f57573d6000803e3d6000fd5b505050506040513d6000823e3d601f19601f820116820180604052506020811015612f8157600080fd5b8101908080516040519392919084640100000000821115612fa157600080fd5b83820191506020820185811115612fb757600080fd5b8251866001820283011164010000000082111715612fd457600080fd5b8083526020830192505050908051906020019080838360005b83811015613008578082015181840152602081019050612fed565b50505050905090810190601f1680156130355780820380516001836020036101000a031916815260200191505b506040525050506040516020018082805190602001908083835b60208310613072578051825260208201915060208101905060208303925061304f565b6001836020036101000a03801982511681845116808217855250505050505090500191505060405160208183030381529060405280519060200120141561330057826020015173ffffffffffffffffffffffffffffffffffffffff163373ffffffffffffffffffffffffffffffffffffffff1614613158576040517f08c379a00000000000000000000000000000000000000000000000000000000081526004018080602001828103825260128152602001807f696e76616c69642077697468647261776565000000000000000000000000000081525060200191505060405180910390fd5b82610140015142106131d2576040517f08c379a000000000000000000000000000000000000000000000000000000000815260040180806020018281038252600d8152602001807f65787069726564206f726465720000000000000000000000000000000000000081525060200191505060405180910390fd5b600460009054906101000a900473ffffffffffffffffffffffffffffffffffffffff1673ffffffffffffffffffffffffffffffffffffffff1663f242432a3085602001518661010001518760c001516040518563ffffffff1660e01b8152600401808573ffffffffffffffffffffffffffffffffffffffff1673ffffffffffffffffffffffffffffffffffffffff1681526020018473ffffffffffffffffffffffffffffffffffffffff1673ffffffffffffffffffffffffffffffffffffffff1681526020018381526020018281526020018060200182810382526000815260200160200195505050505050600060405180830381600087803b1580156132d857600080fd5b505af11580156132ec573d6000803e3d6000fd5b505050508260c00151915082610100015190505b60405160200180807f43544f4b454e0000000000000000000000000000000000000000000000000000815250600601905060405160208183030381529060405280519060200120600460009054906101000a900473ffffffffffffffffffffffffffffffffffffffff1673ffffffffffffffffffffffffffffffffffffffff166306fdde036040518163ffffffff1660e01b815260040160006040518083038186803b1580156133af57600080fd5b505afa1580156133c3573d6000803e3d6000fd5b505050506040513d6000823e3d601f19601f8201168201806040525060208110156133ed57600080fd5b810190808051604051939291908464010000000082111561340d57600080fd5b8382019150602082018581111561342357600080fd5b825186600182028301116401000000008211171561344057600080fd5b8083526020830192505050908051906020019080838360005b83811015613474578082015181840152602081019050613459565b50505050905090810190601f1680156134a15780820380516001836020036101000a031916815260200191505b506040525050506040516020018082805190602001908083835b602083106134de57805182526020820191506020810190506020830392506134bb565b6001836020036101000a03801982511681845116808217855250505050505090500191505060405160208183030381529060405280519060200120141561376a57826000015173ffffffffffffffffffffffffffffffffffffffff163373ffffffffffffffffffffffffffffffffffffffff16146135c4576040517f08c379a00000000000000000000000000000000000000000000000000000000081526004018080602001828103825260128152602001807f696e76616c69642077697468647261776565000000000000000000000000000081525060200191505060405180910390fd5b826101200151421061363e576040517f08c379a000000000000000000000000000000000000000000000000000000000815260040180806020018281038252600d8152602001807f65787069726564206f726465720000000000000000000000000000000000000081525060200191505060405180910390fd5b600460009054906101000a900473ffffffffffffffffffffffffffffffffffffffff1673ffffffffffffffffffffffffffffffffffffffff1663f242432a3085600001518660e001518760a001516040518563ffffffff1660e01b8152600401808573ffffffffffffffffffffffffffffffffffffffff1673ffffffffffffffffffffffffffffffffffffffff1681526020018473ffffffffffffffffffffffffffffffffffffffff1673ffffffffffffffffffffffffffffffffffffffff1681526020018381526020018281526020018060200182810382526000815260200160200195505050505050600060405180830381600087803b15801561374357600080fd5b505af1158015613757573d6000803e3d6000fd5b505050508260a0015191508260e0015190505b83600260008781526020019081526020016000206004018190555060026003600087815260200190815260200160002060006101000a81548160ff021916908360038111156137b557fe5b02179055503373ffffffffffffffffffffffffffffffffffffffff167fa604bb135b1561eacfabf964f09a7e83f20566509e1034068c6627f37c0169fe83838860405180848152602001838152602001828152602001935050505060405180910390a25050505050565b600063bc197c8160e01b905098975050505050505050565b6001600381111561384457fe5b6003600083815260200190815260200160002060009054906101000a900460ff16600381111561387057fe5b146138e3576040517f08c379a00000000000000000000000000000000000000000000000000000000081526004018080602001828103825260108152602001807f6f72646572206e6f74206f70656e65640000000000000000000000000000000081525060200191505060405180910390fd5b6138eb614489565b60026000838152602001908152602001600020604051806101a00160405290816000820160009054906101000a900473ffffffffffffffffffffffffffffffffffffffff1673ffffffffffffffffffffffffffffffffffffffff1673ffffffffffffffffffffffffffffffffffffffff1681526020016001820160009054906101000a900473ffffffffffffffffffffffffffffffffffffffff1673ffffffffffffffffffffffffffffffffffffffff1673ffffffffffffffffffffffffffffffffffffffff1681526020016002820160009054906101000a900473ffffffffffffffffffffffffffffffffffffffff1673ffffffffffffffffffffffffffffffffffffffff1673ffffffffffffffffffffffffffffffffffffffff16815260200160038201548152602001600482015481526020016005820154815260200160068201548152602001600782015481526020016008820154815260200160098201548152602001600a8201548152602001600b8201548152602001600c820160009054906101000a900460ff161515151581525050905060011515816101800151151514613b02576040517f08c379a00000000000000000000000000000000000000000000000000000000081526004018080602001828103825260108152602001807f6f72646572206e6f742066756e6465640000000000000000000000000000000081525060200191505060405180910390fd5b60008060405160200180807f54544f4b454e0000000000000000000000000000000000000000000000000000815250600601905060405160208183030381529060405280519060200120600460009054906101000a900473ffffffffffffffffffffffffffffffffffffffff1673ffffffffffffffffffffffffffffffffffffffff166306fdde036040518163ffffffff1660e01b815260040160006040518083038186803b158015613bb457600080fd5b505afa158015613bc8573d6000803e3d6000fd5b505050506040513d6000823e3d601f19601f820116820180604052506020811015613bf257600080fd5b8101908080516040519392919084640100000000821115613c1257600080fd5b83820191506020820185811115613c2857600080fd5b8251866001820283011164010000000082111715613c4557600080fd5b8083526020830192505050908051906020019080838360005b83811015613c79578082015181840152602081019050613c5e565b50505050905090810190601f168015613ca65780820380516001836020036101000a031916815260200191505b506040525050506040516020018082805190602001908083835b60208310613ce35780518252602082019150602081019050602083039250613cc0565b6001836020036101000a038019825116818451168082178552505050505050905001915050604051602081830303815290604052805190602001201415613f71578261014001514211613d9e576040517f08c379a00000000000000000000000000000000000000000000000000000000081526004018080602001828103825260118152602001807f6f72646572206e6f74206578706972656400000000000000000000000000000081525060200191505060405180910390fd5b826000015173ffffffffffffffffffffffffffffffffffffffff163373ffffffffffffffffffffffffffffffffffffffff1614613e43576040517f08c379a00000000000000000000000000000000000000000000000000000000081526004018080602001828103825260128152602001807f696e76616c69642077697468647261776565000000000000000000000000000081525060200191505060405180910390fd5b600460009054906101000a900473ffffffffffffffffffffffffffffffffffffffff1673ffffffffffffffffffffffffffffffffffffffff1663f242432a3085600001518661010001518760c001516040518563ffffffff1660e01b8152600401808573ffffffffffffffffffffffffffffffffffffffff1673ffffffffffffffffffffffffffffffffffffffff1681526020018473ffffffffffffffffffffffffffffffffffffffff1673ffffffffffffffffffffffffffffffffffffffff1681526020018381526020018281526020018060200182810382526000815260200160200195505050505050600060405180830381600087803b158015613f4957600080fd5b505af1158015613f5d573d6000803e3d6000fd5b505050508260c00151915082610100015190505b60405160200180807f43544f4b454e0000000000000000000000000000000000000000000000000000815250600601905060405160208183030381529060405280519060200120600460009054906101000a900473ffffffffffffffffffffffffffffffffffffffff1673ffffffffffffffffffffffffffffffffffffffff166306fdde036040518163ffffffff1660e01b815260040160006040518083038186803b15801561402057600080fd5b505afa158015614034573d6000803e3d6000fd5b505050506040513d6000823e3d601f19601f82011682018060405250602081101561405e57600080fd5b810190808051604051939291908464010000000082111561407e57600080fd5b8382019150602082018581111561409457600080fd5b82518660018202830111640100000000821117156140b157600080fd5b8083526020830192505050908051906020019080838360005b838110156140e55780820151818401526020810190506140ca565b50505050905090810190601f1680156141125780820380516001836020036101000a031916815260200191505b506040525050506040516020018082805190602001908083835b6020831061414f578051825260208201915060208101905060208303925061412c565b6001836020036101000a0380198251168184511680821785525050505050509050019150506040516020818303038152906040528051906020012014156143db57826101200151421161420a576040517f08c379a00000000000000000000000000000000000000000000000000000000081526004018080602001828103825260118152602001807f6f72646572206e6f74206578706972656400000000000000000000000000000081525060200191505060405180910390fd5b826020015173ffffffffffffffffffffffffffffffffffffffff163373ffffffffffffffffffffffffffffffffffffffff16146142af576040517f08c379a00000000000000000000000000000000000000000000000000000000081526004018080602001828103825260128152602001807f696e76616c69642077697468647261776565000000000000000000000000000081525060200191505060405180910390fd5b600460009054906101000a900473ffffffffffffffffffffffffffffffffffffffff1673ffffffffffffffffffffffffffffffffffffffff1663f242432a3085602001518660e001518760a001516040518563ffffffff1660e01b8152600401808573ffffffffffffffffffffffffffffffffffffffff1673ffffffffffffffffffffffffffffffffffffffff1681526020018473ffffffffffffffffffffffffffffffffffffffff1673ffffffffffffffffffffffffffffffffffffffff1681526020018381526020018281526020018060200182810382526000815260200160200195505050505050600060405180830381600087803b1580156143b457600080fd5b505af11580156143c8573d6000803e3d6000fd5b505050508260a0015191508260e0015190505b600380600086815260200190815260200160002060006101000a81548160ff0219169083600381111561440a57fe5b02179055503373ffffffffffffffffffffffffffffffffffffffff167f36177a4f79f2c7c54cdcffd95da93d50d908aca804346ac7fdcd78c104d88ea983838760405180848152602001838152602001828152602001935050505060405180910390a250505050565b600063f23a6e6160e01b90509695505050505050565b604051806101a00160405280600073ffffffffffffffffffffffffffffffffffffffff168152602001600073ffffffffffffffffffffffffffffffffffffffff168152602001600073ffffffffffffffffffffffffffffffffffffffff168152602001600080191681526020016000801916815260200160008152602001600081526020016000815260200160008152602001600081526020016000815260200160008152602001600015158152509056fe636f6e74726163742079657420746f20626520617070726f76656420746f206d6f76652074746f6b656e73616e20616464726573732063616e2774206265207468652073616d6520726563656976657220666f72207468652074776f20746f6b656e73696e69746961746f72206d757374206265206120726563697069656e74206f6620616e79206f662074686520746f6b656e73636f6e74726163742079657420746f20626520617070726f76656420746f206d6f76652063746f6b656e73a26469706673582212208e5ea42826d999248905385f0ef87a873b2bb817fa4a6a6da1bd9f9e64486e9264736f6c63430006020033",
  "source": "pragma solidity 0.6.2;\n\nimport \"../utils/ERC1155Receiver.sol\";\nimport \"../utils/IERCToken.sol\";\n\n\n // SPDX-License-Identifier: MIT\n\n ///    @title HTLC for ERC1155 atomic swap\n\n/** \n    @notice    this contract implements ERC1155Receiver so as to receive token deposits \n */\n\n\n/**\n\n    @dev The flow for the atomic swap goes thus;\n\n    1.  An initiator opens order on the two HTLC contracts on the two chains with the same order id\n    2.  The initiator automatically deposit tokens to the htlc for his own chain\n    3.  The other party gets notified of the order on the other chain and funds the order\n    4.  The initiator provides secret to the other party and then withdraws the token provided the secret is correct\n    5.  The other party takes the secret and uses it to withdraw the tokens that the initiator deposited during the order opening\n    6.  Since the initiator withdraws first, and the other party withdraws last, the other party will need more time to withdraw\n\n */\n \n\ncontract HTLC is ERC1155Receiver {\n\n    /**\n        @dev the token contract addresses to be registered with this HTLC contract\n\n\n     */ \n\n\n    address private _erc_1155_token_address;\n    \n\n    /**  @dev    Enum to be used to track the state of an order\n\n        @notice INVALID means the order id doesn't exist\n        @notice OPEN    means the order is opened and yet to be closed or expired\n        @notice CLOSED  means that the order has been fullfilled\n        @notice EXPIRED means that the order has exceeded its validity period\n\n    */\n    \n\n    enum AtomicSwapState {\n\n        INVALID,        \n        OPEN,\n        CLOSED,\n        EXPIRED\n\n    }\n\n    /**  @dev    The order's initiator is used to distinguish the source from whence the order was initiated\n        The contract can't automatically determine the source as the contract will be on different chains. \n        Precaution must be taken from the client application that calls the smart contracts to properly identity who initiates the transaction\n        The initiator will have less time to withdraw, while the other party will need more time to withdraw\n   \n    */\n    \n\n\n    /// @dev    struct to store order information\n    struct AtomicSwapOrder {\n\n\n        address         _ctokenReceiver;    //  the reciever of CToken. This is also giver of TToken\n        address         _ttokenReceiver;    //  the receiver of TToken. This is also the giver of CToken\n        address         _orderInitiator;    //  the order initiator is the creator of the order between the two parties\n        bytes32         _secretHash;        //  the hash of the secret to be stored upon order opening. without this, either parties cannot transact\n        bytes32         _secretKey;         //  the secret key is secret to the initiator's token. Without this, either parties cannot transact. The secret must match the hash\n        uint256         _ctokenAmount;      //  the amount of CToken to be transacted\n        uint256         _ttokenAmount;      //  the amount of TToken to be transacted\n        uint256         _ctokenId;          //  the CToken id to be transacted\n        uint256         _ttokenId;          //  the TToken id to be transacted\n        uint256         _ctokenWithdrawalExpiration;    //  the expiration time for CToken withdrawal\n        uint256         _ttokenWithdrawalExpiration;    //  the expiration time for TToken withdrawal\n        uint256         _atomicSwapId;                  //  the id of the swap order    \n        bool            _funded;                        //  the deposit status for the order\n        \n        \n\n    }\n\n    mapping(uint256 => AtomicSwapOrder) private _swapOrder;\n    mapping(uint256 => AtomicSwapState) private _swapState;          //  default is invalid for all order id\n\n    \n\n    IERCToken ERC1155_TOKEN;             //  declare the token interface\n    \n    /**\n        @dev    Token address initialization in the construction.\n        \n        ctoken address for HTLC to deposit and withdraw ctokens\n        ttoken address for HTLC to deposit and withdraw ttokens\n\n    */\n\n    constructor(address erc_1155_token_address) public {\n\n        _erc_1155_token_address = erc_1155_token_address;     //  token address initialization\n       \n        \n        ERC1155_TOKEN = IERCToken(_erc_1155_token_address);   //  register token with the interface\n        \n    }\n\n\n    /**\n        @dev order initiator opens the order. The initiator funds the order automatically after approving\n        the htlc contract to move the funds from his/her account\n\n        if the order is opened in the non initiator's contract, the entitiy will call the fundOrdr function\n        to deposit his/her token\n\n        @notice that the _ctokenReceiver must not be the _ttokenReciever\n        @notice that the if the _orderInitiator is equal to any of the token receiver, he will be depositing his tokens authomatically for that\n        @dev    the above conditions is to ensure that the deployed contracts can properlly apportion time contrainst to each parties\n\n        ----Flow----\n\n        1.  the order id to be created must be invalid\n        2.  the secret hash must match the secret key\n        3.  the ctoken receiver must not be the token receiver\n        4.  the order creator must be either of the tokens receiver\n        5.  the order expiration period for the non initiating party must be greater than the initiator with the secret\n\n    \n    */\n\n    function openOrder(uint256 _orderId, uint256 _ctokenId, uint256 _ttokenId, uint256 _ctokenAmount, uint256 _ttokenAmount, address _ctokenReceiver, address _ttokenReceiver, bytes32 _secretKey, bytes32 _secretHash) external {\n        \n        require(_swapState[_orderId] == AtomicSwapState.INVALID, \"existing order id\");          //  order id must be a non existing id\n        require(_secretHash == sha256(abi.encode(_secretKey)), \"invalid secret\");               //  check the secret validity\n        require(_ctokenReceiver != _ttokenReceiver, \"an address can't be the same receiver for the two tokens\");        //  ttoken receiver must be different to ctoken receiver\n        require(msg.sender == _ctokenReceiver || msg.sender == _ttokenReceiver, \"initiator must be a recipient of any of the tokens\");      //  only a recipient of the token can initiate the order\n        \n\n        uint256 _ctokenReceiverExpiration;\n        uint256 _ttokenReceiverExpiration;\n        bool _fundedStatus;\n        \n\n        /**\n            @dev    this if else condition detects the initiator of the contract, and apportions time accordingly\n            since the initiator a.k.a msg.sender withdraws first, he has 30 minutes to withdraw\n            since the other party is the last the withdraw, he has additional 30 minutes to withdraw, with total time of 1 hour\n        */\n\n            \n        if (_ctokenReceiver == msg.sender){\n\n            _ctokenReceiverExpiration = now + 30 minutes; //now + 30 seconds;       //  assign 30 to the initiator\n            _ttokenReceiverExpiration = now + 1 hours;  //now + 1 minutes; //       //  assign 1hr to the other party\n            \n            /**\n                @dev    if initiator is receiving ctoken, then he is giving token, hence the need to deposit ttoken \n            */\n\n\n            if (keccak256(abi.encodePacked((ERC1155_TOKEN.name()))) == keccak256(abi.encodePacked((\"TTOKEN\")))) {\n                require(ERC1155_TOKEN.isApprovedForAll(msg.sender, address(this)), \"contract yet to be approved to move ttokens\");\n                ERC1155_TOKEN.safeTransferFrom(msg.sender, address(this), _ttokenId, _ttokenAmount, \"\");\n                _fundedStatus = true;\n            }        \n\n        }\n\n            \n        if (_ttokenReceiver == msg.sender) {\n\n            _ctokenReceiverExpiration = now + 1 hours;      //now + 1 minutes; //       //  assign 1 hour to the other party\n            _ttokenReceiverExpiration = now + 30 minutes;  //now + 30 seconds; //       //  assign 30 minutes to the initiator\n\n            /**\n                @dev    if initiator is receiving ttoken, then he is giving ctoken, hence the need to deposit ttoken \n            */\n\n\n            if (keccak256(abi.encodePacked((ERC1155_TOKEN.name()))) == keccak256(abi.encodePacked((\"CTOKEN\")))) {\n                require(ERC1155_TOKEN.isApprovedForAll(msg.sender, address(this)), \"contract yet to be approved to move ctokens\");\n                ERC1155_TOKEN.safeTransferFrom(msg.sender, address(this), _ctokenId, _ctokenAmount, \"\");\n                _fundedStatus = true;\n            }   \n\n        }\n\n\n\n        _swapState[_orderId] = AtomicSwapState.OPEN;     //  update the order state to open\n        _swapOrder[_orderId] = AtomicSwapOrder(_ctokenReceiver, _ttokenReceiver, msg.sender, _secretHash, \n                                                bytes32(0), _ctokenAmount, _ttokenAmount, _ctokenId,  _ttokenId, _ctokenReceiverExpiration, \n                                                _ttokenReceiverExpiration, _orderId, _fundedStatus);\n\n\n        //  emit the opened order\n        AtomicSwapOrder memory _order = _swapOrder[_orderId];       //  emit event data from struct to prevent stack too deep error\n        emit OpenedOrder(_order._ctokenReceiver, _order._ttokenReceiver, _order._ctokenAmount, _order._ttokenAmount, _order._ctokenId, _order._ttokenId, _order._atomicSwapId);\n\n    }\n\n    /**\n        @dev the non initiator of the order calls the fundOrder function to fund the order\n\n        deposit is valid for only opened orders\n        the depositor must match the registered address for that token deposit during the order opening\n        the order must not be an expired order\n    */\n\n    function depositOrder(uint256 _orderId) external {\n\n        require(_swapState[_orderId] == AtomicSwapState.OPEN, \"order not opened\");          //  order id must be a non existing id\n        AtomicSwapOrder memory _order = _swapOrder[_orderId];\n        require(msg.sender != _order._orderInitiator, \"invalid depositor\");\n        \n\n        if(msg.sender == _order._ctokenReceiver) {\n\n            //  require that the withdrawal time for ttoken is yet to expire so that \n            //  the depositor can proceed with funding the ttoken\n            require (now < _order._ttokenWithdrawalExpiration, \"expired order\");\n            require(_order._funded == false, \"funded order\");\n            if (keccak256(abi.encodePacked((ERC1155_TOKEN.name()))) == keccak256(abi.encodePacked((\"TTOKEN\")))) {\n                require(ERC1155_TOKEN.isApprovedForAll(msg.sender, address(this)), \"contract yet to be approved to move ttokens\");\n                ERC1155_TOKEN.safeTransferFrom(msg.sender, address(this), _order._ttokenId, _order._ttokenAmount, \"\");\n                _swapOrder[_orderId]._funded = true;\n            }\n\n            emit DepositedOrder(msg.sender, address(this), _orderId, _order._ttokenId, _order._ttokenAmount);   \n\n        }\n\n        if(msg.sender == _order._ttokenReceiver) {\n\n            //  require that the withdrawal time for ctoken is yet to expire so that \n            //  the depositor can proceed with funding the ctoken\n            require (now < _order._ctokenWithdrawalExpiration, \"expired order\");\n            require(_order._funded == false, \"funded order\");\n            if (keccak256(abi.encodePacked((ERC1155_TOKEN.name()))) == keccak256(abi.encodePacked((\"CTOKEN\")))) {\n                require(ERC1155_TOKEN.isApprovedForAll(msg.sender, address(this)), \"contract yet to be approved to move ctokens\");\n                ERC1155_TOKEN.safeTransferFrom(msg.sender, address(this), _order._ctokenId, _order._ctokenAmount, \"\");\n                _swapOrder[_orderId]._funded = true;\n            }\n\n            emit DepositedOrder(msg.sender, address(this), _orderId, _order._ctokenId, _order._ctokenAmount);   \n        }\n\n        \n    }\n\n    /**\n        @dev    withdrawal function for individual parties to place withdawal\n                order must be OPEN\n                secret must match\n                order must be funded\n                withdrawee must be the correct recipient\n                order must not be expired\n                withdraw successfully\n                make the secret key public\n                close the order\n\n        @param _secretKey must be provided before any withdrawal can be initiated\n\n        the order initiator cannot withdraw the tokens of the secret recipient if he provides a wrong secret \n        He must provide the valid secret that he used to initiate/open the order\n\n        the secret recipient will get the secret and use it to withdraw the token on the other chain\n     */\n\n    function withdrawOrder(uint256 _orderId, bytes32 _secretKey) external {\n        \n        require(_swapState[_orderId] == AtomicSwapState.OPEN, \"order not opened\");\n        AtomicSwapOrder memory _order = _swapOrder[_orderId];\n        require(_order._funded == true, \"order not funded\");\n        require(_order._secretHash == sha256(abi.encode(_secretKey)), \"invalid secret\");               //  check the secret validity\n        uint256 _amount;\n        uint256 _tokenId;\n        \n        //  use the token name to detect the valid recipient\n        if (keccak256(abi.encodePacked((ERC1155_TOKEN.name()))) == keccak256(abi.encodePacked((\"TTOKEN\")))) {\n            \n            require(msg.sender == _order._ttokenReceiver, \"invalid withdrawee\");\n            require(now < _order._ttokenWithdrawalExpiration, \"expired order\");\n            ERC1155_TOKEN.safeTransferFrom(address(this), _order._ttokenReceiver, _order._ttokenId, _order._ttokenAmount, \"\");\n            _amount = _order._ttokenAmount;\n            _tokenId = _order._ttokenId;\n        }\n\n\n        if (keccak256(abi.encodePacked((ERC1155_TOKEN.name()))) == keccak256(abi.encodePacked((\"CTOKEN\")))) {\n            \n            require(msg.sender == _order._ctokenReceiver, \"invalid withdrawee\");\n            require(now < _order._ctokenWithdrawalExpiration, \"expired order\");\n            ERC1155_TOKEN.safeTransferFrom(address(this), _order._ctokenReceiver, _order._ctokenId, _order._ctokenAmount, \"\");\n            _amount = _order._ctokenAmount;\n            _tokenId = _order._ctokenId;\n        }\n\n        \n        _swapOrder[_orderId]._secretKey = _secretKey;\n        _swapState[_orderId] = AtomicSwapState.CLOSED;\n\n        emit ClosedOrder(msg.sender, _amount , _tokenId, _orderId);\n\n    }\n\n    /**\n        @dev function to initate refund to the respective depositors provided order has expired\n     */\n\n    function refundOrder(uint256 _orderId) external {\n\n        require(_swapState[_orderId] == AtomicSwapState.OPEN, \"order not opened\");\n        AtomicSwapOrder memory _order = _swapOrder[_orderId];\n        require(_order._funded == true, \"order not funded\");  \n        uint256 _amount;\n        uint256 _tokenId;\n        \n        //  use the token name to detect the expiration period\n        if (keccak256(abi.encodePacked((ERC1155_TOKEN.name()))) == keccak256(abi.encodePacked((\"TTOKEN\")))) {\n            \n            require(now > _order._ttokenWithdrawalExpiration, \"order not expired\");\n            require(msg.sender == _order._ctokenReceiver, \"invalid withdrawee\");        //  it was deposited by ctoken receiver\n            ERC1155_TOKEN.safeTransferFrom(address(this), _order._ctokenReceiver, _order._ttokenId, _order._ttokenAmount, \"\");\n            _amount = _order._ttokenAmount;\n            _tokenId = _order._ttokenId;\n        }\n\n\n        if (keccak256(abi.encodePacked((ERC1155_TOKEN.name()))) == keccak256(abi.encodePacked((\"CTOKEN\")))) {\n            \n            require(now > _order._ctokenWithdrawalExpiration, \"order not expired\");\n            require(msg.sender == _order._ttokenReceiver, \"invalid withdrawee\");        //  it was deposited by ttoken receiver\n            ERC1155_TOKEN.safeTransferFrom(address(this), _order._ttokenReceiver, _order._ctokenId, _order._ctokenAmount, \"\");\n            _amount = _order._ctokenAmount;\n            _tokenId = _order._ctokenId;\n        }\n\n        _swapState[_orderId] = AtomicSwapState.EXPIRED;         //  update the order state\n        emit RefundOrder (msg.sender, _amount, _tokenId, _orderId);\n    }\n\n    /**\n        @dev    function to fetch order details by id\n        @param  _orderId is the id of the order to be queried\n\n     */\n    function checkOrder(uint256 _orderId) external view returns(address _ctokenReceiver, address _ttokenReceiver, uint256 _ctokenReceiverExpiration, uint256 _ttokenReceiverExpiration, uint256 _ctokenAmount, uint256 _ttokenAmount, uint256 _ctokenId, uint256 _ttokenId, AtomicSwapState _atomicSwapState, bool _funded, bytes32 _secretKey) {\n\n            require(_swapState[_orderId] != AtomicSwapState.INVALID, \"invalid Id\");\n            AtomicSwapOrder memory _order = _swapOrder[_orderId];\n            AtomicSwapState _state = _swapState[_orderId];\n            return (_order._ctokenReceiver, _order._ttokenReceiver, _order._ctokenWithdrawalExpiration, _order._ttokenWithdrawalExpiration, _order._ctokenAmount, _order._ttokenAmount, _order._ctokenId, _order._ttokenId, _state, _order._funded, _order._secretKey); \n\n    }\n\n    \n\n\n    /// @notice this function's implementation to receive deposit\n    function onERC1155Received(address operator, address from, uint256 id, uint256 value, bytes calldata data) external override returns(bytes4){\n        return this.onERC1155Received.selector;\n    }\n\n    ///    @notice this implementation to recieve deposit in batches\n    function onERC1155BatchReceived(address operator, address from, uint256[] calldata ids, uint256[] calldata values, bytes calldata data) external override returns(bytes4){\n        return this.onERC1155BatchReceived.selector;\n    }\n\n    \n\n    \n    \n\n\n    /**\n        @dev    Events to be emitted\n    */\n\n    event OpenedOrder (address indexed _ctokenReceiver, address indexed _ttokenReceiver, uint256 _ctokenAmount, uint256 _ttokenAmount, uint256 _ctokenId, uint256 _ttokenId, uint256 _orderId);\n    event DepositedOrder (address indexed _depositor, address indexed _receivingContract, uint256 _orderId, uint256 _tokenId, uint256 _tokenAmount);\n    event ClosedOrder (address indexed _withdrawee, uint256 _amount, uint256 _tokenId, uint256 _orderId);\n    event RefundOrder (address indexed _to, uint256 _amount, uint256 _tokenId, uint256 _orderId);\n}",
  "sourcePath": "/Users/veteran/Documents/blockchain/Nagesh/contracts/htlc/HTLC_ERC1155.sol",
  "compiler": {
    "name": "solc",
    "version": "0.6.2+commit.bacdbe57.Emscripten.clang"
  },
  "schemaVersion": "3.4.8",
  "updatedAt": "2022-08-16T19:27:21.012Z",
  "networkType": "ethereum",
  "devdoc": {
    "details": "The flow for the atomic swap goes thus; 1.  An initiator opens order on the two HTLC contracts on the two chains with the same order id 2.  The initiator automatically deposit tokens to the htlc for his own chain 3.  The other party gets notified of the order on the other chain and funds the order 4.  The initiator provides secret to the other party and then withdraws the token provided the secret is correct 5.  The other party takes the secret and uses it to withdraw the tokens that the initiator deposited during the order opening 6.  Since the initiator withdraws first, and the other party withdraws last, the other party will need more time to withdraw",
    "methods": {
      "checkOrder(uint256)": {
        "details": "function to fetch order details by id",
        "params": {
          "_orderId": "is the id of the order to be queried"
        }
      },
      "constructor": {
        "details": "Token address initialization in the construction. ctoken address for HTLC to deposit and withdraw ctokens ttoken address for HTLC to deposit and withdraw ttokens"
      },
      "depositOrder(uint256)": {
        "details": "the non initiator of the order calls the fundOrder function to fund the order deposit is valid for only opened orders the depositor must match the registered address for that token deposit during the order opening the order must not be an expired order"
      },
      "openOrder(uint256,uint256,uint256,uint256,uint256,address,address,bytes32,bytes32)": {
        "details": "order initiator opens the order. The initiator funds the order automatically after approving the htlc contract to move the funds from his/her account if the order is opened in the non initiator's contract, the entitiy will call the fundOrdr function to deposit his/her tokenthe above conditions is to ensure that the deployed contracts can properlly apportion time contrainst to each parties ----Flow---- 1.  the order id to be created must be invalid 2.  the secret hash must match the secret key 3.  the ctoken receiver must not be the token receiver 4.  the order creator must be either of the tokens receiver 5.  the order expiration period for the non initiating party must be greater than the initiator with the secret"
      },
      "refundOrder(uint256)": {
        "details": "function to initate refund to the respective depositors provided order has expired"
      },
      "supportsInterface(bytes4)": {
        "details": "See {IERC165-supportsInterface}.     * Time complexity O(1), guaranteed to always use less than 30 000 gas."
      },
      "withdrawOrder(uint256,bytes32)": {
        "details": "withdrawal function for individual parties to place withdawal order must be OPEN secret must match order must be funded withdrawee must be the correct recipient order must not be expired withdraw successfully make the secret key public close the order",
        "params": {
          "_secretKey": "must be provided before any withdrawal can be initiated the order initiator cannot withdraw the tokens of the secret recipient if he provides a wrong secret  He must provide the valid secret that he used to initiate/open the order the secret recipient will get the secret and use it to withdraw the token on the other chain"
        }
      }
    }
  },
  "userdoc": {
    "methods": {
      "onERC1155BatchReceived(address,address,uint256[],uint256[],bytes)": {
        "notice": "this implementation to recieve deposit in batches"
      },
      "onERC1155Received(address,address,uint256,uint256,bytes)": {
        "notice": "this function's implementation to receive deposit"
      },
      "openOrder(uint256,uint256,uint256,uint256,uint256,address,address,bytes32,bytes32)": {
        "notice": "that the _ctokenReceiver must not be the _ttokenRecieverthat the if the _orderInitiator is equal to any of the token receiver, he will be depositing his tokens authomatically for that"
      }
    }
  }
}